{
    "contractName": "AdministratorContract",
    "abi": [
        {
            "inputs": [
                {
                    "internalType": "uint256",
                    "name": "_taxId",
                    "type": "uint256"
                },
                {
                    "internalType": "string",
                    "name": "_name",
                    "type": "string"
                }
            ],
            "stateMutability": "nonpayable",
            "type": "constructor"
        },
        {
            "anonymous": false,
            "inputs": [
                {
                    "indexed": true,
                    "internalType": "address",
                    "name": "from_",
                    "type": "address"
                },
                {
                    "indexed": true,
                    "internalType": "address",
                    "name": "address_",
                    "type": "address"
                },
                {
                    "indexed": false,
                    "internalType": "string",
                    "name": "name_",
                    "type": "string"
                },
                {
                    "indexed": false,
                    "internalType": "uint256",
                    "name": "taxId_",
                    "type": "uint256"
                },
                {
                    "indexed": false,
                    "internalType": "uint256",
                    "name": "timestamp_",
                    "type": "uint256"
                }
            ],
            "name": "AdminAdded",
            "type": "event"
        },
        {
            "anonymous": false,
            "inputs": [
                {
                    "indexed": true,
                    "internalType": "address",
                    "name": "from_",
                    "type": "address"
                },
                {
                    "indexed": true,
                    "internalType": "address",
                    "name": "oldAddress_",
                    "type": "address"
                },
                {
                    "indexed": true,
                    "internalType": "address",
                    "name": "newAddress_",
                    "type": "address"
                },
                {
                    "indexed": false,
                    "internalType": "string",
                    "name": "name_",
                    "type": "string"
                },
                {
                    "indexed": false,
                    "internalType": "uint256",
                    "name": "taxId_",
                    "type": "uint256"
                },
                {
                    "indexed": false,
                    "internalType": "enum AdministratorContract.State",
                    "name": "state_",
                    "type": "uint8"
                },
                {
                    "indexed": false,
                    "internalType": "uint256",
                    "name": "timestamp_",
                    "type": "uint256"
                }
            ],
            "name": "AdminUpdated",
            "type": "event"
        },
        {
            "inputs": [
                {
                    "internalType": "address",
                    "name": "_address",
                    "type": "address"
                },
                {
                    "internalType": "string",
                    "name": "_name",
                    "type": "string"
                },
                {
                    "internalType": "uint256",
                    "name": "_taxId",
                    "type": "uint256"
                }
            ],
            "name": "addAdministrator",
            "outputs": [],
            "stateMutability": "nonpayable",
            "type": "function"
        },
        {
            "inputs": [
                {
                    "internalType": "address",
                    "name": "_address",
                    "type": "address"
                }
            ],
            "name": "checkIfAdministratorExists",
            "outputs": [
                {
                    "internalType": "bool",
                    "name": "",
                    "type": "bool"
                }
            ],
            "stateMutability": "view",
            "type": "function"
        },
        {
            "inputs": [
                {
                    "internalType": "address",
                    "name": "_address",
                    "type": "address"
                }
            ],
            "name": "checkIfAdministratorIsActive",
            "outputs": [
                {
                    "internalType": "bool",
                    "name": "",
                    "type": "bool"
                }
            ],
            "stateMutability": "view",
            "type": "function"
        },
        {
            "inputs": [
                {
                    "internalType": "uint256",
                    "name": "_id",
                    "type": "uint256"
                }
            ],
            "name": "getAdministrator",
            "outputs": [
                {
                    "components": [
                        {
                            "internalType": "uint256",
                            "name": "idAdministrator",
                            "type": "uint256"
                        },
                        {
                            "internalType": "address",
                            "name": "administratorAddress",
                            "type": "address"
                        },
                        {
                            "internalType": "uint256",
                            "name": "taxId",
                            "type": "uint256"
                        },
                        {
                            "internalType": "string",
                            "name": "name",
                            "type": "string"
                        },
                        {
                            "internalType": "enum AdministratorContract.State",
                            "name": "stateOf",
                            "type": "uint8"
                        }
                    ],
                    "internalType": "struct AdministratorContract.Administrator",
                    "name": "",
                    "type": "tuple"
                }
            ],
            "stateMutability": "view",
            "type": "function"
        },
        {
            "inputs": [],
            "name": "getAllAdministrators",
            "outputs": [
                {
                    "components": [
                        {
                            "internalType": "uint256",
                            "name": "idAdministrator",
                            "type": "uint256"
                        },
                        {
                            "internalType": "address",
                            "name": "administratorAddress",
                            "type": "address"
                        },
                        {
                            "internalType": "uint256",
                            "name": "taxId",
                            "type": "uint256"
                        },
                        {
                            "internalType": "string",
                            "name": "name",
                            "type": "string"
                        },
                        {
                            "internalType": "enum AdministratorContract.State",
                            "name": "stateOf",
                            "type": "uint8"
                        }
                    ],
                    "internalType": "struct AdministratorContract.Administrator[]",
                    "name": "",
                    "type": "tuple[]"
                }
            ],
            "stateMutability": "view",
            "type": "function"
        },
        {
            "inputs": [
                {
                    "internalType": "address",
                    "name": "_addressKey",
                    "type": "address"
                },
                {
                    "internalType": "address",
                    "name": "_address",
                    "type": "address"
                },
                {
                    "internalType": "uint256",
                    "name": "_taxId",
                    "type": "uint256"
                },
                {
                    "internalType": "string",
                    "name": "_name",
                    "type": "string"
                },
                {
                    "internalType": "enum AdministratorContract.State",
                    "name": "_state",
                    "type": "uint8"
                }
            ],
            "name": "updateAdministrator",
            "outputs": [],
            "stateMutability": "nonpayable",
            "type": "function"
        }
    ],
    "bytecode": "60806040523480156200001157600080fd5b5060405162001572380380620015728339810160408190526200003491620001a1565b6001805480820182557fb10e2d527612073b26eecdfd717e6a320cf44b4afac2b0732d9fcbe2b7fa0cf6018054336001600160a01b031991821681179092556040805160a08101825260008082526020808301958652928201888152606083018881526080840197909752818052925280517fad3228b676f7d3cd4284a5443f17f1962b36e491b30a40b2405849e597ba5fb590815593517fad3228b676f7d3cd4284a5443f17f1962b36e491b30a40b2405849e597ba5fb680546001600160a01b039092169190941617909255517fad3228b676f7d3cd4284a5443f17f1962b36e491b30a40b2405849e597ba5fb75591517fad3228b676f7d3cd4284a5443f17f1962b36e491b30a40b2405849e597ba5fb89062000155908262000326565b50608082015160048201805460ff1916600183818111156200017b576200017b62000281565b02179055509050505050620003f2565b634e487b7160e01b600052604160045260246000fd5b60008060408385031215620001b557600080fd5b8251602080850151919350906001600160401b0380821115620001d757600080fd5b818601915086601f830112620001ec57600080fd5b8151818111156200020157620002016200018b565b604051601f8201601f19908116603f011681019083821181831017156200022c576200022c6200018b565b8160405282815289868487010111156200024557600080fd5b600093505b828410156200026957848401860151818501870152928501926200024a565b60008684830101528096505050505050509250929050565b634e487b7160e01b600052602160045260246000fd5b600181811c90821680620002ac57607f821691505b602082108103620002cd57634e487b7160e01b600052602260045260246000fd5b50919050565b601f8211156200032157600081815260208120601f850160051c81016020861015620002fc5750805b601f850160051c820191505b818110156200031d5782815560010162000308565b5050505b505050565b81516001600160401b038111156200034257620003426200018b565b6200035a8162000353845462000297565b84620002d3565b602080601f831160018114620003925760008415620003795750858301515b600019600386901b1c1916600185901b1785556200031d565b600085815260208120601f198616915b82811015620003c357888601518255948401946001909101908401620003a2565b5085821015620003e25787850151600019600388901b60f8161c191681555b5050505050600190811b01905550565b61117080620004026000396000f3fe608060405234801561001057600080fd5b50600436106100625760003560e01c806318c74ff6146100675780636ddd5db61461008f57806392190216146100a4578063c98ae20a146100b9578063d23f3ca0146100cc578063debcf75d146100ec575b600080fd5b61007a610075366004610bca565b6100ff565b60405190151581526020015b60405180910390f35b61009761019a565b6040516100869190610ccb565b6100b76100b2366004610dd0565b6103be565b005b6100b76100c7366004610e51565b6107d8565b6100df6100da366004610ea8565b6109c3565b6040516100869190610ec1565b61007a6100fa366004610bca565b610b4e565b6000805b60015481101561019157826001600160a01b03166001828154811061012a5761012a610ed4565b6000918252602090912001546001600160a01b03161480156101715750600160008281526020819052604090206004015460ff16600181111561016f5761016f610c3c565b145b1561017f5750600192915050565b8061018981610eea565b915050610103565b50600092915050565b60606101a533610b4e565b6101ca5760405162461bcd60e51b81526004016101c190610f11565b60405180910390fd5b336101d4816100ff565b6101f05760405162461bcd60e51b81526004016101c190610f48565b60015460009067ffffffffffffffff81111561020e5761020e610d2d565b60405190808252806020026020018201604052801561026d57816020015b61025a6040805160a08101825260008082526020820181905291810182905260608082015290608082015290565b81526020019060019003908161022c5790505b50905060005b6001548110156103b75760008181526020818152604091829020825160a0810184528154815260018201546001600160a01b0316928101929092526002810154928201929092526003820180549192916060840191906102d290610f7f565b80601f01602080910402602001604051908101604052809291908181526020018280546102fe90610f7f565b801561034b5780601f106103205761010080835404028352916020019161034b565b820191906000526020600020905b81548152906001019060200180831161032e57829003601f168201915b5050509183525050600482015460209091019060ff16600181111561037257610372610c3c565b600181111561038357610383610c3c565b8152505082828151811061039957610399610ed4565b602002602001018190525080806103af90610eea565b915050610273565b5091505090565b6103c733610b4e565b6103e35760405162461bcd60e51b81526004016101c190610f11565b336103ed816100ff565b6104095760405162461bcd60e51b81526004016101c190610f48565b8561041381610b4e565b61045f5760405162461bcd60e51b815260206004820152601960248201527f41646d696e6973747261746f72206e6f74206578697374732e0000000000000060448201526064016101c1565b6001600160a01b0386166104aa5760405162461bcd60e51b815260206004820152601260248201527120b2323932b9b9903737ba1033b4bb32b71760711b60448201526064016101c1565b846000036104ed5760405162461bcd60e51b815260206004820152601060248201526f2a30bc24b2103737ba1033b4bb32b71760811b60448201526064016101c1565b604080516000815260208101808352815190209161050d91879101610fb3565b60405160208183030381529060405280519060200120036105625760405162461bcd60e51b815260206004820152600f60248201526e2730b6b2903737ba1033b4bb32b71760891b60448201526064016101c1565b60008080805b6001548110156105c3578a6001600160a01b03166001828154811061058f5761058f610ed4565b6000918252602090912001546001600160a01b0316036105b1578091506105c3565b806105bb81610eea565b915050610568565b506000818152602081905260409020600101546001600160a01b038a811691161461060b5760008181526020819052604090206001908101549093506001600160a01b031691505b6040518060a001604052808281526020018a6001600160a01b0316815260200189815260200188815260200187600181111561064957610649610c3c565b90526000828152602081815260409182902083518155908301516001820180546001600160a01b0319166001600160a01b03909216919091179055908201516002820155606082015160038201906106a1908261101e565b50608082015160048201805460ff1916600183818111156106c4576106c4610c3c565b021790555090505082156107715760005b60015481101561076f57826001600160a01b0316600182815481106106fc576106fc610ed4565b6000918252602090912001546001600160a01b03160361075d57896001828154811061072a5761072a610ed4565b9060005260206000200160006101000a8154816001600160a01b0302191690836001600160a01b0316021790555061076f565b8061076781610eea565b9150506106d5565b505b886001600160a01b03168a6001600160a01b0316336001600160a01b03167fd9a159557e525e3bc2b81d69d20aeb83490568d93c1fa3375761e507883c875d8a8c8b426040516107c494939291906110de565b60405180910390a450505050505050505050565b6107e133610b4e565b6107fd5760405162461bcd60e51b81526004016101c190610f11565b33610807816100ff565b6108235760405162461bcd60e51b81526004016101c190610f48565b8361082d81610b4e565b1561087a5760405162461bcd60e51b815260206004820152601d60248201527f41646d696e6973747261746f7220616c7265616479206578697374732e00000060448201526064016101c1565b6040805160a0810182526001805482526001600160a01b0388166020830152918101859052606081018690529060808201526001805460009081526020818152604091829020845181559084015192810180546001600160a01b0319166001600160a01b0390941693909317909255820151600282015560608201516003820190610905908261101e565b50608082015160048201805460ff19166001838181111561092857610928610c3c565b0217905550506001805480820182556000919091527fb10e2d527612073b26eecdfd717e6a320cf44b4afac2b0732d9fcbe2b7fa0cf60180546001600160a01b0319166001600160a01b03881690811790915560405190915033907f9a698d6fed18a9877243dcd954c3df919838fb726eae6482abccb84f3090c7c4906109b490889088904290611115565b60405180910390a35050505050565b6109f16040805160a08101825260008082526020820181905291810182905260608082015290608082015290565b6109fa33610b4e565b610a165760405162461bcd60e51b81526004016101c190610f11565b33610a20816100ff565b610a3c5760405162461bcd60e51b81526004016101c190610f48565b60008381526020818152604091829020825160a0810184528154815260018201546001600160a01b031692810192909252600281015492820192909252600382018054919291606084019190610a9190610f7f565b80601f0160208091040260200160405190810160405280929190818152602001828054610abd90610f7f565b8015610b0a5780601f10610adf57610100808354040283529160200191610b0a565b820191906000526020600020905b815481529060010190602001808311610aed57829003601f168201915b5050509183525050600482015460209091019060ff166001811115610b3157610b31610c3c565b6001811115610b4257610b42610c3c565b90525091505b50919050565b6000805b60015481101561019157826001600160a01b031660018281548110610b7957610b79610ed4565b6000918252602090912001546001600160a01b031603610b9c5750600192915050565b80610ba681610eea565b915050610b52565b80356001600160a01b0381168114610bc557600080fd5b919050565b600060208284031215610bdc57600080fd5b610be582610bae565b9392505050565b60005b83811015610c07578181015183820152602001610bef565b50506000910152565b60008151808452610c28816020860160208601610bec565b601f01601f19169290920160200192915050565b634e487b7160e01b600052602160045260246000fd5b60028110610c7057634e487b7160e01b600052602160045260246000fd5b9052565b8051825260018060a01b036020820151166020830152604081015160408301526000606082015160a06060850152610caf60a0850182610c10565b90506080830151610cc36080860182610c52565b509392505050565b6000602080830181845280855180835260408601915060408160051b870101925083870160005b82811015610d2057603f19888603018452610d0e858351610c74565b94509285019290850190600101610cf2565b5092979650505050505050565b634e487b7160e01b600052604160045260246000fd5b600082601f830112610d5457600080fd5b813567ffffffffffffffff80821115610d6f57610d6f610d2d565b604051601f8301601f19908116603f01168101908282118183101715610d9757610d97610d2d565b81604052838152866020858801011115610db057600080fd5b836020870160208301376000602085830101528094505050505092915050565b600080600080600060a08688031215610de857600080fd5b610df186610bae565b9450610dff60208701610bae565b935060408601359250606086013567ffffffffffffffff811115610e2257600080fd5b610e2e88828901610d43565b925050608086013560028110610e4357600080fd5b809150509295509295909350565b600080600060608486031215610e6657600080fd5b610e6f84610bae565b9250602084013567ffffffffffffffff811115610e8b57600080fd5b610e9786828701610d43565b925050604084013590509250925092565b600060208284031215610eba57600080fd5b5035919050565b602081526000610be56020830184610c74565b634e487b7160e01b600052603260045260246000fd5b600060018201610f0a57634e487b7160e01b600052601160045260246000fd5b5060010190565b6020808252601d908201527f53656e646572206d7573742062652061646d696e6973747261746f722e000000604082015260600190565b6020808252601c908201527f41646d696e6973747261746f72206973206e6f74206163746976652e00000000604082015260600190565b600181811c90821680610f9357607f821691505b602082108103610b4857634e487b7160e01b600052602260045260246000fd5b60008251610fc5818460208701610bec565b9190910192915050565b601f82111561101957600081815260208120601f850160051c81016020861015610ff65750805b601f850160051c820191505b8181101561101557828155600101611002565b5050505b505050565b815167ffffffffffffffff81111561103857611038610d2d565b61104c816110468454610f7f565b84610fcf565b602080601f83116001811461108157600084156110695750858301515b600019600386901b1c1916600185901b178555611015565b600085815260208120601f198616915b828110156110b057888601518255948401946001909101908401611091565b50858210156110ce5787850151600019600388901b60f8161c191681555b5050505050600190811b01905550565b6080815260006110f16080830187610c10565b90508460208301526111066040830185610c52565b82606083015295945050505050565b6060815260006111286060830186610c10565b6020830194909452506040015291905056fea264697066735822122034ebb792d9c4233a9d8fffc15dcff38e2419abb869b25ea1b0c1d721ae2ecbd764736f6c63430008130033",
    "sourcePath": "/home/gilmar/Development/scafolding/contracts/AdministratorContract.sol",
    "compiler": {
        "name": "solc",
        "version": "0.8.19+commit.7dd6d404"
    },
    "functionHashes": {
        "addAdministrator(address,string,uint256)": "c98ae20a",
        "checkIfAdministratorExists(address)": "debcf75d",
        "checkIfAdministratorIsActive(address)": "18c74ff6",
        "getAdministrator(uint256)": "d23f3ca0",
        "getAllAdministrators()": "6ddd5db6",
        "updateAdministrator(address,address,uint256,string,uint8)": "92190216"
    },
    "gasEstimates": {
        "creation": {
            "codeDepositCost": "892800",
            "executionCost": "infinite",
            "totalCost": "infinite"
        },
        "external": {
            "addAdministrator(address,string,uint256)": "infinite",
            "checkIfAdministratorExists(address)": "infinite",
            "checkIfAdministratorIsActive(address)": "infinite",
            "getAdministrator(uint256)": "infinite",
            "getAllAdministrators()": "infinite",
            "updateAdministrator(address,address,uint256,string,uint8)": "infinite"
        }
    }
}