{
    "contractName": "EmployerContract",
    "abi": [
        {
            "inputs": [
                {
                    "internalType": "address",
                    "name": "_adm",
                    "type": "address"
                }
            ],
            "stateMutability": "nonpayable",
            "type": "constructor"
        },
        {
            "anonymous": false,
            "inputs": [
                {
                    "indexed": true,
                    "internalType": "address",
                    "name": "from_",
                    "type": "address"
                },
                {
                    "indexed": true,
                    "internalType": "address",
                    "name": "address_",
                    "type": "address"
                },
                {
                    "indexed": false,
                    "internalType": "string",
                    "name": "name_",
                    "type": "string"
                },
                {
                    "indexed": false,
                    "internalType": "uint256",
                    "name": "taxId_",
                    "type": "uint256"
                },
                {
                    "indexed": false,
                    "internalType": "string",
                    "name": "legalAddress_",
                    "type": "string"
                },
                {
                    "indexed": false,
                    "internalType": "uint256",
                    "name": "timestamp_",
                    "type": "uint256"
                }
            ],
            "name": "EmployerAdded",
            "type": "event"
        },
        {
            "anonymous": false,
            "inputs": [
                {
                    "indexed": true,
                    "internalType": "address",
                    "name": "from_",
                    "type": "address"
                },
                {
                    "indexed": true,
                    "internalType": "address",
                    "name": "oldAddress_",
                    "type": "address"
                },
                {
                    "indexed": true,
                    "internalType": "address",
                    "name": "newAddress_",
                    "type": "address"
                },
                {
                    "indexed": false,
                    "internalType": "string",
                    "name": "name_",
                    "type": "string"
                },
                {
                    "indexed": false,
                    "internalType": "uint256",
                    "name": "taxId_",
                    "type": "uint256"
                },
                {
                    "indexed": false,
                    "internalType": "string",
                    "name": "legaAddress_",
                    "type": "string"
                },
                {
                    "indexed": false,
                    "internalType": "uint256",
                    "name": "timestamp_",
                    "type": "uint256"
                }
            ],
            "name": "EmployerUpdated",
            "type": "event"
        },
        {
            "inputs": [
                {
                    "internalType": "address",
                    "name": "_address",
                    "type": "address"
                },
                {
                    "internalType": "uint256",
                    "name": "_taxId",
                    "type": "uint256"
                },
                {
                    "internalType": "string",
                    "name": "_name",
                    "type": "string"
                },
                {
                    "internalType": "string",
                    "name": "_legalAddress",
                    "type": "string"
                }
            ],
            "name": "addEmployer",
            "outputs": [],
            "stateMutability": "nonpayable",
            "type": "function"
        },
        {
            "inputs": [
                {
                    "internalType": "address",
                    "name": "_address",
                    "type": "address"
                }
            ],
            "name": "checkIfEmployerExists",
            "outputs": [
                {
                    "internalType": "bool",
                    "name": "",
                    "type": "bool"
                }
            ],
            "stateMutability": "view",
            "type": "function"
        },
        {
            "inputs": [],
            "name": "getAllEmployers",
            "outputs": [
                {
                    "components": [
                        {
                            "internalType": "uint256",
                            "name": "idEmployer",
                            "type": "uint256"
                        },
                        {
                            "internalType": "address",
                            "name": "employerAddress",
                            "type": "address"
                        },
                        {
                            "internalType": "uint256",
                            "name": "taxId",
                            "type": "uint256"
                        },
                        {
                            "internalType": "string",
                            "name": "name",
                            "type": "string"
                        },
                        {
                            "internalType": "string",
                            "name": "legalAddress",
                            "type": "string"
                        }
                    ],
                    "internalType": "struct EmployerContract.Employer[]",
                    "name": "",
                    "type": "tuple[]"
                }
            ],
            "stateMutability": "view",
            "type": "function"
        },
        {
            "inputs": [
                {
                    "internalType": "address",
                    "name": "_address",
                    "type": "address"
                }
            ],
            "name": "getEmployerByAddress",
            "outputs": [
                {
                    "components": [
                        {
                            "internalType": "uint256",
                            "name": "idEmployer",
                            "type": "uint256"
                        },
                        {
                            "internalType": "address",
                            "name": "employerAddress",
                            "type": "address"
                        },
                        {
                            "internalType": "uint256",
                            "name": "taxId",
                            "type": "uint256"
                        },
                        {
                            "internalType": "string",
                            "name": "name",
                            "type": "string"
                        },
                        {
                            "internalType": "string",
                            "name": "legalAddress",
                            "type": "string"
                        }
                    ],
                    "internalType": "struct EmployerContract.Employer",
                    "name": "",
                    "type": "tuple"
                }
            ],
            "stateMutability": "view",
            "type": "function"
        },
        {
            "inputs": [
                {
                    "internalType": "uint256",
                    "name": "_id",
                    "type": "uint256"
                }
            ],
            "name": "getEmployerById",
            "outputs": [
                {
                    "components": [
                        {
                            "internalType": "uint256",
                            "name": "idEmployer",
                            "type": "uint256"
                        },
                        {
                            "internalType": "address",
                            "name": "employerAddress",
                            "type": "address"
                        },
                        {
                            "internalType": "uint256",
                            "name": "taxId",
                            "type": "uint256"
                        },
                        {
                            "internalType": "string",
                            "name": "name",
                            "type": "string"
                        },
                        {
                            "internalType": "string",
                            "name": "legalAddress",
                            "type": "string"
                        }
                    ],
                    "internalType": "struct EmployerContract.Employer",
                    "name": "",
                    "type": "tuple"
                }
            ],
            "stateMutability": "view",
            "type": "function"
        },
        {
            "inputs": [
                {
                    "internalType": "address",
                    "name": "_addressKey",
                    "type": "address"
                },
                {
                    "internalType": "address",
                    "name": "_address",
                    "type": "address"
                },
                {
                    "internalType": "uint256",
                    "name": "_taxId",
                    "type": "uint256"
                },
                {
                    "internalType": "string",
                    "name": "_name",
                    "type": "string"
                },
                {
                    "internalType": "string",
                    "name": "_legalAddress",
                    "type": "string"
                }
            ],
            "name": "updateEmployer",
            "outputs": [],
            "stateMutability": "nonpayable",
            "type": "function"
        }
    ],
    "bytecode": "608060405234801561001057600080fd5b50604051611aeb380380611aeb83398101604081905261002f91610054565b600080546001600160a01b0319166001600160a01b0392909216919091179055610084565b60006020828403121561006657600080fd5b81516001600160a01b038116811461007d57600080fd5b9392505050565b611a58806100936000396000f3fe608060405234801561001057600080fd5b50600436106100625760003560e01c806314c671d6146100675780632907e0f8146100855780632a57272c146100a55780637a787125146100c8578063a39fa249146100db578063c4064faf146100f0575b600080fd5b61006f610103565b60405161007c919061153c565b60405180910390f35b61009861009336600461159e565b610424565b60405161007c91906115b7565b6100b86100b33660046115e8565b6106ae565b604051901515815260200161007c565b6100986100d63660046115e8565b610827565b6100ee6100e93660046116a6565b610b15565b005b6100ee6100fe366004611735565b61103f565b60005460405163debcf75d60e01b81523360048201526060916001600160a01b03169063debcf75d90602401602060405180830381865afa15801561014c573d6000803e3d6000fd5b505050506040513d601f19601f8201168201806040525081019061017091906117b3565b6101955760405162461bcd60e51b815260040161018c906117d5565b60405180910390fd5b600054604051630c63a7fb60e11b81523360048201526001600160a01b03909116906318c74ff690602401602060405180830381865afa1580156101dd573d6000803e3d6000fd5b505050506040513d601f19601f8201168201806040525081019061020191906117b3565b61021d5760405162461bcd60e51b815260040161018c9061180c565b60025460009067ffffffffffffffff81111561023b5761023b611603565b60405190808252806020026020018201604052801561027457816020015b610261611457565b8152602001906001900390816102595790505b50905060005b60025481101561041e57600081815260016020818152604092839020835160a08101855281548152928101546001600160a01b0316918301919091526002810154928201929092526003820180549192916060840191906102da90611843565b80601f016020809104026020016040519081016040528092919081815260200182805461030690611843565b80156103535780601f1061032857610100808354040283529160200191610353565b820191906000526020600020905b81548152906001019060200180831161033657829003601f168201915b5050505050815260200160048201805461036c90611843565b80601f016020809104026020016040519081016040528092919081815260200182805461039890611843565b80156103e55780601f106103ba576101008083540402835291602001916103e5565b820191906000526020600020905b8154815290600101906020018083116103c857829003601f168201915b5050505050815250508282815181106104005761040061187d565b6020026020010181905250808061041690611893565b91505061027a565b50905090565b61042c611457565b60005460405163debcf75d60e01b81523360048201526001600160a01b039091169063debcf75d90602401602060405180830381865afa158015610474573d6000803e3d6000fd5b505050506040513d601f19601f8201168201806040525081019061049891906117b3565b6104b45760405162461bcd60e51b815260040161018c906117d5565b600054604051630c63a7fb60e11b81523360048201526001600160a01b03909116906318c74ff690602401602060405180830381865afa1580156104fc573d6000803e3d6000fd5b505050506040513d601f19601f8201168201806040525081019061052091906117b3565b61053c5760405162461bcd60e51b815260040161018c9061180c565b600082815260016020818152604092839020835160a08101855281548152928101546001600160a01b03169183019190915260028101549282019290925260038201805491929160608401919061059290611843565b80601f01602080910402602001604051908101604052809291908181526020018280546105be90611843565b801561060b5780601f106105e05761010080835404028352916020019161060b565b820191906000526020600020905b8154815290600101906020018083116105ee57829003601f168201915b5050505050815260200160048201805461062490611843565b80601f016020809104026020016040519081016040528092919081815260200182805461065090611843565b801561069d5780601f106106725761010080835404028352916020019161069d565b820191906000526020600020905b81548152906001019060200180831161068057829003601f168201915b50505050508152505090505b919050565b6000805460405163debcf75d60e01b81523360048201526001600160a01b039091169063debcf75d90602401602060405180830381865afa1580156106f7573d6000803e3d6000fd5b505050506040513d601f19601f8201168201806040525081019061071b91906117b3565b6107375760405162461bcd60e51b815260040161018c906117d5565b600054604051630c63a7fb60e11b81523360048201526001600160a01b03909116906318c74ff690602401602060405180830381865afa15801561077f573d6000803e3d6000fd5b505050506040513d601f19601f820116820180604052508101906107a391906117b3565b6107bf5760405162461bcd60e51b815260040161018c9061180c565b60005b60025481101561081e57826001600160a01b0316600282815481106107e9576107e961187d565b6000918252602090912001546001600160a01b03160361080c5750600192915050565b8061081681611893565b9150506107c2565b50600092915050565b61082f611457565b60005460405163debcf75d60e01b81523360048201526001600160a01b039091169063debcf75d90602401602060405180830381865afa158015610877573d6000803e3d6000fd5b505050506040513d601f19601f8201168201806040525081019061089b91906117b3565b6108b75760405162461bcd60e51b815260040161018c906117d5565b600054604051630c63a7fb60e11b81523360048201526001600160a01b03909116906318c74ff690602401602060405180830381865afa1580156108ff573d6000803e3d6000fd5b505050506040513d601f19601f8201168201806040525081019061092391906117b3565b61093f5760405162461bcd60e51b815260040161018c9061180c565b610947611457565b60005b600254811015610b0e57836001600160a01b0316600282815481106109715761097161187d565b6000918252602090912001546001600160a01b031603610afc57600081815260016020818152604092839020835160a08101855281548152928101546001600160a01b0316918301919091526002810154928201929092526003820180549192916060840191906109e190611843565b80601f0160208091040260200160405190810160405280929190818152602001828054610a0d90611843565b8015610a5a5780601f10610a2f57610100808354040283529160200191610a5a565b820191906000526020600020905b815481529060010190602001808311610a3d57829003601f168201915b50505050508152602001600482018054610a7390611843565b80601f0160208091040260200160405190810160405280929190818152602001828054610a9f90611843565b8015610aec5780601f10610ac157610100808354040283529160200191610aec565b820191906000526020600020905b815481529060010190602001808311610acf57829003601f168201915b5050505050815250509150610b0e565b80610b0681611893565b91505061094a565b5092915050565b60005460405163debcf75d60e01b81523360048201526001600160a01b039091169063debcf75d90602401602060405180830381865afa158015610b5d573d6000803e3d6000fd5b505050506040513d601f19601f82011682018060405250810190610b8191906117b3565b610b9d5760405162461bcd60e51b815260040161018c906117d5565b600054604051630c63a7fb60e11b81523360048201526001600160a01b03909116906318c74ff690602401602060405180830381865afa158015610be5573d6000803e3d6000fd5b505050506040513d601f19601f82011682018060405250810190610c0991906117b3565b610c255760405162461bcd60e51b815260040161018c9061180c565b84610c2f816106ae565b610c725760405162461bcd60e51b815260206004820152601460248201527322b6b83637bcb2b9103737ba1032bc34b9ba399760611b604482015260640161018c565b6001600160a01b038516610cbd5760405162461bcd60e51b815260206004820152601260248201527120b2323932b9b9903737ba1033b4bb32b71760711b604482015260640161018c565b83600003610d005760405162461bcd60e51b815260206004820152601060248201526f2a30bc24b2103737ba1033b4bb32b71760811b604482015260640161018c565b6040805160008152602081018083528151902091610d20918691016118ba565b6040516020818303038152906040528051906020012003610d755760405162461bcd60e51b815260206004820152600f60248201526e2730b6b2903737ba1033b4bb32b71760891b604482015260640161018c565b6040805160008152602081018083528151902091610d95918591016118ba565b6040516020818303038152906040528051906020012003610df35760405162461bcd60e51b81526020600482015260186024820152772632b3b0b61030b2323932b9b9903737ba1033b4bb32b71760411b604482015260640161018c565b60008080805b600254811015610e5457896001600160a01b031660028281548110610e2057610e2061187d565b6000918252602090912001546001600160a01b031603610e4257809150610e54565b80610e4c81611893565b915050610df9565b50600081815260016020819052604090912001546001600160a01b03898116911614610e9d5760008181526001602081905260409091208101549093506001600160a01b031691505b6040805160a0810182528281526001600160a01b038a811660208084019182528385018c8152606085018c8152608086018c905260008881526001938490529690962085518155925191830180546001600160a01b03191692909416919091179092559051600282015591519091906003820190610f1b9082611925565b5060808201516004820190610f309082611925565b509050508215610fd95760005b600254811015610fd757826001600160a01b031660028281548110610f6457610f6461187d565b6000918252602090912001546001600160a01b031603610fc5578860028281548110610f9257610f9261187d565b9060005260206000200160006101000a8154816001600160a01b0302191690836001600160a01b03160217905550610fd7565b80610fcf81611893565b915050610f3d565b505b876001600160a01b0316896001600160a01b0316336001600160a01b03167fdef1b586eb40adb84a80b7fccc0f1e863d5bed1c43112bad185c84d73280ccb3898b8a4260405161102c94939291906119e5565b60405180910390a4505050505050505050565b60005460405163debcf75d60e01b81523360048201526001600160a01b039091169063debcf75d90602401602060405180830381865afa158015611087573d6000803e3d6000fd5b505050506040513d601f19601f820116820180604052508101906110ab91906117b3565b6110c75760405162461bcd60e51b815260040161018c906117d5565b600054604051630c63a7fb60e11b81523360048201526001600160a01b03909116906318c74ff690602401602060405180830381865afa15801561110f573d6000803e3d6000fd5b505050506040513d601f19601f8201168201806040525081019061113391906117b3565b61114f5760405162461bcd60e51b815260040161018c9061180c565b83611159816106ae565b156111a65760405162461bcd60e51b815260206004820152601860248201527f456d706c6f79657220616c7265616479206578697374732e0000000000000000604482015260640161018c565b836000036111e95760405162461bcd60e51b815260206004820152601060248201526f2a30bc24b2103737ba1033b4bb32b71760811b604482015260640161018c565b6040805160008152602081018083528151902091611209918691016118ba565b604051602081830303815290604052805190602001200361125e5760405162461bcd60e51b815260206004820152600f60248201526e2730b6b2903737ba1033b4bb32b71760891b604482015260640161018c565b604080516000815260208101808352815190209161127e918591016118ba565b60405160208183030381529060405280519060200120036112dc5760405162461bcd60e51b81526020600482015260186024820152772632b3b0b61030b2323932b9b9903737ba1033b4bb32b71760411b604482015260640161018c565b6001600160a01b0385166113275760405162461bcd60e51b815260206004820152601260248201527120b2323932b9b9903737ba1033b4bb32b71760711b604482015260640161018c565b6040805160a081018252600280548083526001600160a01b0389811660208086019182528587018b8152606087018b8152608088018b905260009586526001928390529790942086518155915190820180546001600160a01b0319169190931617909155905191810191909155915190919060038201906113a89082611925565b50608082015160048201906113bd9082611925565b5050600280546001810182556000919091527f405787fa12a823e0f2b7631cc41b3ba8828b3321ca811111fa75cd3aa3bb5ace0180546001600160a01b0319166001600160a01b03881690811790915560405190915033907f13397531ff38d5bb86412acf9831561ee8485875460b167171b907f5fc0a182a906114489087908990889042906119e5565b60405180910390a35050505050565b6040518060a001604052806000815260200160006001600160a01b031681526020016000815260200160608152602001606081525090565b60005b838110156114aa578181015183820152602001611492565b50506000910152565b600081518084526114cb81602086016020860161148f565b601f01601f19169290920160200192915050565b8051825260018060a01b036020820151166020830152604081015160408301526000606082015160a0606085015261151a60a08501826114b3565b90506080830151848203608086015261153382826114b3565b95945050505050565b6000602080830181845280855180835260408601915060408160051b870101925083870160005b8281101561159157603f1988860301845261157f8583516114df565b94509285019290850190600101611563565b5092979650505050505050565b6000602082840312156115b057600080fd5b5035919050565b6020815260006115ca60208301846114df565b9392505050565b80356001600160a01b03811681146106a957600080fd5b6000602082840312156115fa57600080fd5b6115ca826115d1565b634e487b7160e01b600052604160045260246000fd5b600082601f83011261162a57600080fd5b813567ffffffffffffffff8082111561164557611645611603565b604051601f8301601f19908116603f0116810190828211818310171561166d5761166d611603565b8160405283815286602085880101111561168657600080fd5b836020870160208301376000602085830101528094505050505092915050565b600080600080600060a086880312156116be57600080fd5b6116c7866115d1565b94506116d5602087016115d1565b935060408601359250606086013567ffffffffffffffff808211156116f957600080fd5b61170589838a01611619565b9350608088013591508082111561171b57600080fd5b5061172888828901611619565b9150509295509295909350565b6000806000806080858703121561174b57600080fd5b611754856115d1565b935060208501359250604085013567ffffffffffffffff8082111561177857600080fd5b61178488838901611619565b9350606087013591508082111561179a57600080fd5b506117a787828801611619565b91505092959194509250565b6000602082840312156117c557600080fd5b815180151581146115ca57600080fd5b6020808252601d908201527f53656e646572206d7573742062652061646d696e6973747261746f722e000000604082015260600190565b6020808252601c908201527f41646d696e6973747261746f72206973206e6f74206163746976652e00000000604082015260600190565b600181811c9082168061185757607f821691505b60208210810361187757634e487b7160e01b600052602260045260246000fd5b50919050565b634e487b7160e01b600052603260045260246000fd5b6000600182016118b357634e487b7160e01b600052601160045260246000fd5b5060010190565b600082516118cc81846020870161148f565b9190910192915050565b601f82111561192057600081815260208120601f850160051c810160208610156118fd5750805b601f850160051c820191505b8181101561191c57828155600101611909565b5050505b505050565b815167ffffffffffffffff81111561193f5761193f611603565b6119538161194d8454611843565b846118d6565b602080601f83116001811461198857600084156119705750858301515b600019600386901b1c1916600185901b17855561191c565b600085815260208120601f198616915b828110156119b757888601518255948401946001909101908401611998565b50858210156119d55787850151600019600388901b60f8161c191681555b5050505050600190811b01905550565b6080815260006119f860808301876114b3565b8560208401528281036040840152611a1081866114b3565b9150508260608301529594505050505056fea26469706673582212204e075f3febadee67438e062f7092632c68ac4e282a458f4e389a8be214f5833d64736f6c63430008130033",
    "sourcePath": "/home/gilmar/Development/scafolding/contracts/EmployerContract.sol",
    "compiler": {
        "name": "solc",
        "version": "0.8.19+commit.7dd6d404"
    },
    "functionHashes": {
        "addEmployer(address,uint256,string,string)": "c4064faf",
        "checkIfEmployerExists(address)": "2a57272c",
        "getAllEmployers()": "14c671d6",
        "getEmployerByAddress(address)": "7a787125",
        "getEmployerById(uint256)": "2907e0f8",
        "updateEmployer(address,address,uint256,string,string)": "a39fa249"
    },
    "gasEstimates": {
        "creation": {
            "codeDepositCost": "1348800",
            "executionCost": "infinite",
            "totalCost": "infinite"
        },
        "external": {
            "addEmployer(address,uint256,string,string)": "infinite",
            "checkIfEmployerExists(address)": "infinite",
            "getAllEmployers()": "infinite",
            "getEmployerByAddress(address)": "infinite",
            "getEmployerById(uint256)": "infinite",
            "updateEmployer(address,address,uint256,string,string)": "infinite"
        }
    }
}