{
    "contractName": "EmployeeContract",
    "abi": [
        {
            "inputs": [
                {
                    "internalType": "address",
                    "name": "_adm",
                    "type": "address"
                },
                {
                    "internalType": "address",
                    "name": "_employer",
                    "type": "address"
                },
                {
                    "internalType": "address",
                    "name": "_util",
                    "type": "address"
                }
            ],
            "stateMutability": "nonpayable",
            "type": "constructor"
        },
        {
            "anonymous": false,
            "inputs": [
                {
                    "indexed": true,
                    "internalType": "address",
                    "name": "from_",
                    "type": "address"
                },
                {
                    "indexed": true,
                    "internalType": "address",
                    "name": "address_",
                    "type": "address"
                },
                {
                    "indexed": false,
                    "internalType": "string",
                    "name": "name_",
                    "type": "string"
                },
                {
                    "indexed": false,
                    "internalType": "uint256",
                    "name": "taxId_",
                    "type": "uint256"
                },
                {
                    "indexed": false,
                    "internalType": "uint256",
                    "name": "begginingWorkDay_",
                    "type": "uint256"
                },
                {
                    "indexed": false,
                    "internalType": "uint256",
                    "name": "endWorkDay_",
                    "type": "uint256"
                },
                {
                    "indexed": false,
                    "internalType": "address",
                    "name": "employerAddress_",
                    "type": "address"
                },
                {
                    "indexed": false,
                    "internalType": "uint256",
                    "name": "timestamp_",
                    "type": "uint256"
                }
            ],
            "name": "EmployeeAdded",
            "type": "event"
        },
        {
            "anonymous": false,
            "inputs": [
                {
                    "indexed": true,
                    "internalType": "address",
                    "name": "from_",
                    "type": "address"
                },
                {
                    "indexed": true,
                    "internalType": "address",
                    "name": "oldAddress_",
                    "type": "address"
                },
                {
                    "indexed": true,
                    "internalType": "address",
                    "name": "newAddress_",
                    "type": "address"
                },
                {
                    "indexed": false,
                    "internalType": "uint256",
                    "name": "begginingWorkDay_",
                    "type": "uint256"
                },
                {
                    "indexed": false,
                    "internalType": "uint256",
                    "name": "endWorkDay_",
                    "type": "uint256"
                },
                {
                    "indexed": false,
                    "internalType": "address",
                    "name": "employerAddress_",
                    "type": "address"
                },
                {
                    "indexed": false,
                    "internalType": "enum EmployeeContract.State",
                    "name": "state_",
                    "type": "uint8"
                },
                {
                    "indexed": false,
                    "internalType": "uint256",
                    "name": "timestamp_",
                    "type": "uint256"
                }
            ],
            "name": "EmployeeUpdated",
            "type": "event"
        },
        {
            "inputs": [
                {
                    "internalType": "address",
                    "name": "_address",
                    "type": "address"
                },
                {
                    "internalType": "string",
                    "name": "_name",
                    "type": "string"
                },
                {
                    "internalType": "uint256",
                    "name": "_taxId",
                    "type": "uint256"
                },
                {
                    "internalType": "uint256",
                    "name": "_begginingWorkDay",
                    "type": "uint256"
                },
                {
                    "internalType": "uint256",
                    "name": "_endWorkDay",
                    "type": "uint256"
                },
                {
                    "internalType": "address",
                    "name": "_employerAddress",
                    "type": "address"
                }
            ],
            "name": "addEmployee",
            "outputs": [],
            "stateMutability": "nonpayable",
            "type": "function"
        },
        {
            "inputs": [
                {
                    "internalType": "address",
                    "name": "_address",
                    "type": "address"
                }
            ],
            "name": "checkIfEmployeeExists",
            "outputs": [
                {
                    "internalType": "bool",
                    "name": "",
                    "type": "bool"
                }
            ],
            "stateMutability": "view",
            "type": "function"
        },
        {
            "inputs": [],
            "name": "getAllEmployees",
            "outputs": [
                {
                    "components": [
                        {
                            "internalType": "uint256",
                            "name": "idEmployee",
                            "type": "uint256"
                        },
                        {
                            "internalType": "address",
                            "name": "employeeAddress",
                            "type": "address"
                        },
                        {
                            "internalType": "uint256",
                            "name": "taxId",
                            "type": "uint256"
                        },
                        {
                            "internalType": "string",
                            "name": "name",
                            "type": "string"
                        },
                        {
                            "internalType": "uint256",
                            "name": "begginingWorkDay",
                            "type": "uint256"
                        },
                        {
                            "internalType": "uint256",
                            "name": "endWorkDay",
                            "type": "uint256"
                        },
                        {
                            "internalType": "enum EmployeeContract.State",
                            "name": "stateOf",
                            "type": "uint8"
                        },
                        {
                            "internalType": "address",
                            "name": "employerAddress",
                            "type": "address"
                        }
                    ],
                    "internalType": "struct EmployeeContract.Employee[]",
                    "name": "",
                    "type": "tuple[]"
                }
            ],
            "stateMutability": "view",
            "type": "function"
        },
        {
            "inputs": [
                {
                    "internalType": "address",
                    "name": "_address",
                    "type": "address"
                }
            ],
            "name": "getEmployeeByAddress",
            "outputs": [
                {
                    "components": [
                        {
                            "internalType": "uint256",
                            "name": "idEmployee",
                            "type": "uint256"
                        },
                        {
                            "internalType": "address",
                            "name": "employeeAddress",
                            "type": "address"
                        },
                        {
                            "internalType": "uint256",
                            "name": "taxId",
                            "type": "uint256"
                        },
                        {
                            "internalType": "string",
                            "name": "name",
                            "type": "string"
                        },
                        {
                            "internalType": "uint256",
                            "name": "begginingWorkDay",
                            "type": "uint256"
                        },
                        {
                            "internalType": "uint256",
                            "name": "endWorkDay",
                            "type": "uint256"
                        },
                        {
                            "internalType": "enum EmployeeContract.State",
                            "name": "stateOf",
                            "type": "uint8"
                        },
                        {
                            "internalType": "address",
                            "name": "employerAddress",
                            "type": "address"
                        }
                    ],
                    "internalType": "struct EmployeeContract.Employee",
                    "name": "",
                    "type": "tuple"
                }
            ],
            "stateMutability": "view",
            "type": "function"
        },
        {
            "inputs": [
                {
                    "internalType": "uint256",
                    "name": "_id",
                    "type": "uint256"
                }
            ],
            "name": "getEmployeeById",
            "outputs": [
                {
                    "components": [
                        {
                            "internalType": "uint256",
                            "name": "idEmployee",
                            "type": "uint256"
                        },
                        {
                            "internalType": "address",
                            "name": "employeeAddress",
                            "type": "address"
                        },
                        {
                            "internalType": "uint256",
                            "name": "taxId",
                            "type": "uint256"
                        },
                        {
                            "internalType": "string",
                            "name": "name",
                            "type": "string"
                        },
                        {
                            "internalType": "uint256",
                            "name": "begginingWorkDay",
                            "type": "uint256"
                        },
                        {
                            "internalType": "uint256",
                            "name": "endWorkDay",
                            "type": "uint256"
                        },
                        {
                            "internalType": "enum EmployeeContract.State",
                            "name": "stateOf",
                            "type": "uint8"
                        },
                        {
                            "internalType": "address",
                            "name": "employerAddress",
                            "type": "address"
                        }
                    ],
                    "internalType": "struct EmployeeContract.Employee",
                    "name": "",
                    "type": "tuple"
                }
            ],
            "stateMutability": "view",
            "type": "function"
        },
        {
            "inputs": [],
            "name": "getEmployerContract",
            "outputs": [
                {
                    "internalType": "address",
                    "name": "_empContract",
                    "type": "address"
                }
            ],
            "stateMutability": "view",
            "type": "function"
        },
        {
            "inputs": [
                {
                    "internalType": "address",
                    "name": "_addressKey",
                    "type": "address"
                },
                {
                    "internalType": "address",
                    "name": "_address",
                    "type": "address"
                },
                {
                    "internalType": "uint256",
                    "name": "_taxId",
                    "type": "uint256"
                },
                {
                    "internalType": "string",
                    "name": "_name",
                    "type": "string"
                },
                {
                    "internalType": "uint256",
                    "name": "_begginingWorkDay",
                    "type": "uint256"
                },
                {
                    "internalType": "uint256",
                    "name": "_endWorkDay",
                    "type": "uint256"
                },
                {
                    "internalType": "enum EmployeeContract.State",
                    "name": "_state",
                    "type": "uint8"
                },
                {
                    "internalType": "address",
                    "name": "_employerAddress",
                    "type": "address"
                }
            ],
            "name": "updateEmployee",
            "outputs": [],
            "stateMutability": "nonpayable",
            "type": "function"
        }
    ],
    "bytecode": "60806040523480156200001157600080fd5b506040516200225a3803806200225a833981016040819052620000349162000094565b600080546001600160a01b039485166001600160a01b031991821617909155600180549385169382169390931790925560028054919093169116179055620000de565b80516001600160a01b03811681146200008f57600080fd5b919050565b600080600060608486031215620000aa57600080fd5b620000b58462000077565b9250620000c56020850162000077565b9150620000d56040850162000077565b90509250925092565b61216c80620000ee6000396000f3fe608060405234801561001057600080fd5b506004361061007d5760003560e01c8063c4dc3b481161005b578063c4dc3b48146100e0578063ceed5f5a146100f3578063e3366fed14610106578063fb4cf4251461011b57600080fd5b80630615477d1461008257806312193c3d146100ab5780638574e3b8146100c0575b600080fd5b610095610090366004611abb565b61013e565b6040516100a29190611be5565b60405180910390f35b6100be6100b9366004611c9b565b610406565b005b6100c8610aa4565b6040516001600160a01b0390911681526020016100a2565b6100be6100ee366004611d15565b610bc5565b610095610101366004611db8565b61138c565b61010e6115e3565b6040516100a29190611dd1565b61012e610129366004611abb565b6118cc565b60405190151581526020016100a2565b610146611a45565b60005460405163debcf75d60e01b81523360048201526001600160a01b039091169063debcf75d90602401602060405180830381865afa15801561018e573d6000803e3d6000fd5b505050506040513d601f19601f820116820180604052508101906101b29190611e33565b6101d75760405162461bcd60e51b81526004016101ce90611e55565b60405180910390fd5b600054604051630c63a7fb60e11b81523360048201526001600160a01b03909116906318c74ff690602401602060405180830381865afa15801561021f573d6000803e3d6000fd5b505050506040513d601f19601f820116820180604052508101906102439190611e33565b61025f5760405162461bcd60e51b81526004016101ce90611e8c565b610267611a45565b60005b6004548110156103fd57836001600160a01b03166004828154811061029157610291611ec3565b6000918252602090912001546001600160a01b0316036103eb576000818152600360208181526040928390208351610100810185528154815260018201546001600160a01b031692810192909252600281015493820193909352908201805491929160608401919061030290611ed9565b80601f016020809104026020016040519081016040528092919081815260200182805461032e90611ed9565b801561037b5780601f106103505761010080835404028352916020019161037b565b820191906000526020600020905b81548152906001019060200180831161035e57829003601f168201915b50505091835250506004820154602082015260058201546040820152600682015460609091019060ff1660018111156103b6576103b6611b2d565b60018111156103c7576103c7611b2d565b81526006919091015461010090046001600160a01b031660209091015291506103fd565b806103f581611f13565b91505061026a565b5090505b919050565b60005460405163debcf75d60e01b81523360048201526001600160a01b039091169063debcf75d90602401602060405180830381865afa15801561044e573d6000803e3d6000fd5b505050506040513d601f19601f820116820180604052508101906104729190611e33565b61048e5760405162461bcd60e51b81526004016101ce90611e55565b600054604051630c63a7fb60e11b81523360048201526001600160a01b03909116906318c74ff690602401602060405180830381865afa1580156104d6573d6000803e3d6000fd5b505050506040513d601f19601f820116820180604052508101906104fa9190611e33565b6105165760405162461bcd60e51b81526004016101ce90611e8c565b600154604051630a95c9cb60e21b81526001600160a01b03808416600483015283921690632a57272c90602401602060405180830381865afa158015610560573d6000803e3d6000fd5b505050506040513d601f19601f820116820180604052508101906105849190611e33565b6105c75760405162461bcd60e51b815260206004820152601460248201527322b6b83637bcb2b9103737ba1032bc34b9ba399760611b60448201526064016101ce565b866105d1816118cc565b1561061e5760405162461bcd60e51b815260206004820152601860248201527f456d706c6f79656520616c7265616479206578697374732e000000000000000060448201526064016101ce565b60025460405163dc888e9f60e01b815260048101879052869186916001600160a01b039091169063dc888e9f90602401602060405180830381865afa15801561066b573d6000803e3d6000fd5b505050506040513d601f19601f8201168201806040525081019061068f9190611e33565b6106db5760405162461bcd60e51b815260206004820152601d60248201527f4e6f742076616c69642062656767696e696e6720776f726b206461792e00000060448201526064016101ce565b60025460405163dc888e9f60e01b8152600481018390526001600160a01b039091169063dc888e9f90602401602060405180830381865afa158015610724573d6000803e3d6000fd5b505050506040513d601f19601f820116820180604052508101906107489190611e33565b61078e5760405162461bcd60e51b81526020600482015260176024820152762737ba103b30b634b21032b732103bb7b935903230bc9760491b60448201526064016101ce565b8082106107ad5760405162461bcd60e51b81526004016101ce90611f3a565b6001600160a01b038a166107f85760405162461bcd60e51b815260206004820152601260248201527120b2323932b9b9903737ba1033b4bb32b71760711b60448201526064016101ce565b8760000361083b5760405162461bcd60e51b815260206004820152601060248201526f2a30bc24b2103737ba1033b4bb32b71760811b60448201526064016101ce565b604080516000815260208101808352815190209161085b918c9101611f8c565b60405160208183030381529060405280519060200120036108b05760405162461bcd60e51b815260206004820152600f60248201526e2730b6b2903737ba1033b4bb32b71760891b60448201526064016101ce565b6001600160a01b0385166109065760405162461bcd60e51b815260206004820152601b60248201527f456d706c6f7965722061646472657373206e6f7420676976656e2e000000000060448201526064016101ce565b604080516101008101825260045481526001600160a01b038c166020820152908101899052606081018a90526080810188905260a0810187905260c08101600181526001600160a01b038781166020928301526004546000908152600380845260409182902085518155938501516001850180546001600160a01b031916919094161790925583015160028301556060830151908201906109a79082611ff7565b506080820151600482015560a0820151600582015560c082015160068201805460ff1916600183818111156109de576109de611b2d565b021790555060e0919091015160069091018054610100600160a81b0319166101006001600160a01b0393841602179055600480546001810182556000919091527f8a35acfbc15ff81a39ae7d344fd709f28e8600b4aa8c65c6b64bfe7fe36bd19b0180546001600160a01b031916918c16918217905560405133907f44759cee83b397fd59ceff7dbca11e6cf5135cf3258a50a5212d6bd0a1505b7a90610a90908d908d908d908d908d9042906120b7565b60405180910390a350505050505050505050565b6000805460405163debcf75d60e01b81523360048201526001600160a01b039091169063debcf75d90602401602060405180830381865afa158015610aed573d6000803e3d6000fd5b505050506040513d601f19601f82011682018060405250810190610b119190611e33565b610b2d5760405162461bcd60e51b81526004016101ce90611e55565b600054604051630c63a7fb60e11b81523360048201526001600160a01b03909116906318c74ff690602401602060405180830381865afa158015610b75573d6000803e3d6000fd5b505050506040513d601f19601f82011682018060405250810190610b999190611e33565b610bb55760405162461bcd60e51b81526004016101ce90611e8c565b506001546001600160a01b031690565b60005460405163debcf75d60e01b81523360048201526001600160a01b039091169063debcf75d90602401602060405180830381865afa158015610c0d573d6000803e3d6000fd5b505050506040513d601f19601f82011682018060405250810190610c319190611e33565b610c4d5760405162461bcd60e51b81526004016101ce90611e55565b600054604051630c63a7fb60e11b81523360048201526001600160a01b03909116906318c74ff690602401602060405180830381865afa158015610c95573d6000803e3d6000fd5b505050506040513d601f19601f82011682018060405250810190610cb99190611e33565b610cd55760405162461bcd60e51b81526004016101ce90611e8c565b600154604051630a95c9cb60e21b81526001600160a01b03808416600483015283921690632a57272c90602401602060405180830381865afa158015610d1f573d6000803e3d6000fd5b505050506040513d601f19601f82011682018060405250810190610d439190611e33565b610d865760405162461bcd60e51b815260206004820152601460248201527322b6b83637bcb2b9103737ba1032bc34b9ba399760611b60448201526064016101ce565b88610d90816118cc565b610dd35760405162461bcd60e51b815260206004820152601460248201527322b6b83637bcb2b2903737ba1032bc34b9ba399760611b60448201526064016101ce565b60025460405163dc888e9f60e01b815260048101889052879187916001600160a01b039091169063dc888e9f90602401602060405180830381865afa158015610e20573d6000803e3d6000fd5b505050506040513d601f19601f82011682018060405250810190610e449190611e33565b610e905760405162461bcd60e51b815260206004820152601d60248201527f4e6f742076616c69642062656767696e696e6720776f726b206461792e00000060448201526064016101ce565b60025460405163dc888e9f60e01b8152600481018390526001600160a01b039091169063dc888e9f90602401602060405180830381865afa158015610ed9573d6000803e3d6000fd5b505050506040513d601f19601f82011682018060405250810190610efd9190611e33565b610f435760405162461bcd60e51b81526020600482015260176024820152762737ba103b30b634b21032b732103bb7b935903230bc9760491b60448201526064016101ce565b808210610f625760405162461bcd60e51b81526004016101ce90611f3a565b6001600160a01b038b16610fad5760405162461bcd60e51b815260206004820152601260248201527120b2323932b9b9903737ba1033b4bb32b71760711b60448201526064016101ce565b89600003610ff05760405162461bcd60e51b815260206004820152601060248201526f2a30bc24b2103737ba1033b4bb32b71760811b60448201526064016101ce565b6040805160008152602081018083528151902091611010918c9101611f8c565b60405160208183030381529060405280519060200120036110655760405162461bcd60e51b815260206004820152600f60248201526e2730b6b2903737ba1033b4bb32b71760891b60448201526064016101ce565b6001600160a01b0385166110bb5760405162461bcd60e51b815260206004820152601b60248201527f456d706c6f7965722061646472657373206e6f7420676976656e2e000000000060448201526064016101ce565b60008080805b60045481101561111c578f6001600160a01b0316600482815481106110e8576110e8611ec3565b6000918252602090912001546001600160a01b03160361110a5780915061111c565b8061111481611f13565b9150506110c1565b506000818152600360205260409020600101546001600160a01b038f81169116146111645760008181526003602052604090206001908101549093506001600160a01b031691505b6040518061010001604052808281526020018f6001600160a01b031681526020018e81526020018d81526020018c81526020018b81526020018a60018111156111af576111af611b2d565b81526001600160a01b038a81166020928301526000848152600380845260409182902085518155938501516001850180546001600160a01b0319169190941617909255830151600283015560608301519082019061120d9082611ff7565b506080820151600482015560a0820151600582015560c082015160068201805460ff19166001838181111561124457611244611b2d565b021790555060e09190910151600690910180546001600160a01b0390921661010002610100600160a81b0319909216919091179055821561131e5760005b60045481101561131c57826001600160a01b0316600482815481106112a9576112a9611ec3565b6000918252602090912001546001600160a01b03160361130a578e600482815481106112d7576112d7611ec3565b9060005260206000200160006101000a8154816001600160a01b0302191690836001600160a01b0316021790555061131c565b8061131481611f13565b915050611282565b505b8d6001600160a01b03168f6001600160a01b0316336001600160a01b03167fc692ce3ffc6b3255d2d6a69015fcce188252f258b07ae35dbde03d07bba41c088e8e8d8f426040516113739594939291906120fc565b60405180910390a4505050505050505050505050505050565b611394611a45565b60005460405163debcf75d60e01b81523360048201526001600160a01b039091169063debcf75d90602401602060405180830381865afa1580156113dc573d6000803e3d6000fd5b505050506040513d601f19601f820116820180604052508101906114009190611e33565b61141c5760405162461bcd60e51b81526004016101ce90611e55565b600054604051630c63a7fb60e11b81523360048201526001600160a01b03909116906318c74ff690602401602060405180830381865afa158015611464573d6000803e3d6000fd5b505050506040513d601f19601f820116820180604052508101906114889190611e33565b6114a45760405162461bcd60e51b81526004016101ce90611e8c565b6000828152600360208181526040928390208351610100810185528154815260018201546001600160a01b03169281019290925260028101549382019390935290820180549192916060840191906114fb90611ed9565b80601f016020809104026020016040519081016040528092919081815260200182805461152790611ed9565b80156115745780601f1061154957610100808354040283529160200191611574565b820191906000526020600020905b81548152906001019060200180831161155757829003601f168201915b50505091835250506004820154602082015260058201546040820152600682015460609091019060ff1660018111156115af576115af611b2d565b60018111156115c0576115c0611b2d565b81526006919091015461010090046001600160a01b031660209091015292915050565b60005460405163debcf75d60e01b81523360048201526060916001600160a01b03169063debcf75d90602401602060405180830381865afa15801561162c573d6000803e3d6000fd5b505050506040513d601f19601f820116820180604052508101906116509190611e33565b61166c5760405162461bcd60e51b81526004016101ce90611e55565b600054604051630c63a7fb60e11b81523360048201526001600160a01b03909116906318c74ff690602401602060405180830381865afa1580156116b4573d6000803e3d6000fd5b505050506040513d601f19601f820116820180604052508101906116d89190611e33565b6116f45760405162461bcd60e51b81526004016101ce90611e8c565b60045460009067ffffffffffffffff81111561171257611712611bf8565b60405190808252806020026020018201604052801561174b57816020015b611738611a45565b8152602001906001900390816117305790505b50905060005b6004548110156118c6576000818152600360208181526040928390208351610100810185528154815260018201546001600160a01b03169281019290925260028101549382019390935290820180549192916060840191906117b290611ed9565b80601f01602080910402602001604051908101604052809291908181526020018280546117de90611ed9565b801561182b5780601f106118005761010080835404028352916020019161182b565b820191906000526020600020905b81548152906001019060200180831161180e57829003601f168201915b50505091835250506004820154602082015260058201546040820152600682015460609091019060ff16600181111561186657611866611b2d565b600181111561187757611877611b2d565b81526006919091015461010090046001600160a01b031660209091015282518390839081106118a8576118a8611ec3565b602002602001018190525080806118be90611f13565b915050611751565b50905090565b6000805460405163debcf75d60e01b81523360048201526001600160a01b039091169063debcf75d90602401602060405180830381865afa158015611915573d6000803e3d6000fd5b505050506040513d601f19601f820116820180604052508101906119399190611e33565b6119555760405162461bcd60e51b81526004016101ce90611e55565b600054604051630c63a7fb60e11b81523360048201526001600160a01b03909116906318c74ff690602401602060405180830381865afa15801561199d573d6000803e3d6000fd5b505050506040513d601f19601f820116820180604052508101906119c19190611e33565b6119dd5760405162461bcd60e51b81526004016101ce90611e8c565b60005b600454811015611a3c57826001600160a01b031660048281548110611a0757611a07611ec3565b6000918252602090912001546001600160a01b031603611a2a5750600192915050565b80611a3481611f13565b9150506119e0565b50600092915050565b6040518061010001604052806000815260200160006001600160a01b031681526020016000815260200160608152602001600081526020016000815260200160006001811115611a9757611a97611b2d565b8152600060209091015290565b80356001600160a01b038116811461040157600080fd5b600060208284031215611acd57600080fd5b611ad682611aa4565b9392505050565b60005b83811015611af8578181015183820152602001611ae0565b50506000910152565b60008151808452611b19816020860160208601611add565b601f01601f19169290920160200192915050565b634e487b7160e01b600052602160045260246000fd5b60028110611b6157634e487b7160e01b600052602160045260246000fd5b9052565b600061010082518452602083015160018060a01b0380821660208701526040850151604087015260608501519150826060870152611ba583870183611b01565b92506080850151608087015260a085015160a087015260c08501519150611bcf60c0870183611b43565b60e0948501511694909301939093525090919050565b602081526000611ad66020830184611b65565b634e487b7160e01b600052604160045260246000fd5b600082601f830112611c1f57600080fd5b813567ffffffffffffffff80821115611c3a57611c3a611bf8565b604051601f8301601f19908116603f01168101908282118183101715611c6257611c62611bf8565b81604052838152866020858801011115611c7b57600080fd5b836020870160208301376000602085830101528094505050505092915050565b60008060008060008060c08789031215611cb457600080fd5b611cbd87611aa4565b9550602087013567ffffffffffffffff811115611cd957600080fd5b611ce589828a01611c0e565b955050604087013593506060870135925060808701359150611d0960a08801611aa4565b90509295509295509295565b600080600080600080600080610100898b031215611d3257600080fd5b611d3b89611aa4565b9750611d4960208a01611aa4565b965060408901359550606089013567ffffffffffffffff811115611d6c57600080fd5b611d788b828c01611c0e565b9550506080890135935060a0890135925060c089013560028110611d9b57600080fd5b9150611da960e08a01611aa4565b90509295985092959890939650565b600060208284031215611dca57600080fd5b5035919050565b6000602080830181845280855180835260408601915060408160051b870101925083870160005b82811015611e2657603f19888603018452611e14858351611b65565b94509285019290850190600101611df8565b5092979650505050505050565b600060208284031215611e4557600080fd5b81518015158114611ad657600080fd5b6020808252601d908201527f53656e646572206d7573742062652061646d696e6973747261746f722e000000604082015260600190565b6020808252601c908201527f41646d696e6973747261746f72206973206e6f74206163746976652e00000000604082015260600190565b634e487b7160e01b600052603260045260246000fd5b600181811c90821680611eed57607f821691505b602082108103611f0d57634e487b7160e01b600052602260045260246000fd5b50919050565b600060018201611f3357634e487b7160e01b600052601160045260246000fd5b5060010190565b60208082526032908201527f42656767696e696e6720576f726b20446179206d757374206265206c657373206040820152713a3430b71022b732102bb7b935902230bc9760711b606082015260800190565b60008251611f9e818460208701611add565b9190910192915050565b601f821115611ff257600081815260208120601f850160051c81016020861015611fcf5750805b601f850160051c820191505b81811015611fee57828155600101611fdb565b5050505b505050565b815167ffffffffffffffff81111561201157612011611bf8565b6120258161201f8454611ed9565b84611fa8565b602080601f83116001811461205a57600084156120425750858301515b600019600386901b1c1916600185901b178555611fee565b600085815260208120601f198616915b828110156120895788860151825594840194600190910190840161206a565b50858210156120a75787850151600019600388901b60f8161c191681555b5050505050600190811b01905550565b60c0815260006120ca60c0830189611b01565b602083019790975250604081019490945260608401929092526001600160a01b0316608083015260a090910152919050565b858152602081018590526001600160a01b038416604082015260a081016121266060830185611b43565b826080830152969550505050505056fea264697066735822122036d0ae96b5709c111c9883d25d128db296c588af25dacaa111a7fd38e3b9865a64736f6c63430008130033",
    "sourcePath": "/home/gilmar/Development/scafolding/contracts/EmployeeContract.sol",
    "compiler": {
        "name": "solc",
        "version": "0.8.19+commit.7dd6d404"
    },
    "functionHashes": {
        "addEmployee(address,string,uint256,uint256,uint256,address)": "12193c3d",
        "checkIfEmployeeExists(address)": "fb4cf425",
        "getAllEmployees()": "e3366fed",
        "getEmployeeByAddress(address)": "0615477d",
        "getEmployeeById(uint256)": "ceed5f5a",
        "getEmployerContract()": "8574e3b8",
        "updateEmployee(address,address,uint256,string,uint256,uint256,uint8,address)": "c4dc3b48"
    },
    "gasEstimates": {
        "creation": {
            "codeDepositCost": "1711200",
            "executionCost": "infinite",
            "totalCost": "infinite"
        },
        "external": {
            "addEmployee(address,string,uint256,uint256,uint256,address)": "infinite",
            "checkIfEmployeeExists(address)": "infinite",
            "getAllEmployees()": "infinite",
            "getEmployeeByAddress(address)": "infinite",
            "getEmployeeById(uint256)": "infinite",
            "getEmployerContract()": "infinite",
            "updateEmployee(address,address,uint256,string,uint256,uint256,uint8,address)": "infinite"
        }
    }
}