{
    "contractName": "PontoBlockReports",
    "abi": [
        {
            "inputs": [
                {
                    "internalType": "address",
                    "name": "_emp",
                    "type": "address"
                },
                {
                    "internalType": "address",
                    "name": "_ponto",
                    "type": "address"
                },
                {
                    "internalType": "address",
                    "name": "_util",
                    "type": "address"
                },
                {
                    "internalType": "address",
                    "name": "_adm",
                    "type": "address"
                }
            ],
            "stateMutability": "nonpayable",
            "type": "constructor"
        },
        {
            "inputs": [
                {
                    "internalType": "address",
                    "name": "_employee",
                    "type": "address"
                },
                {
                    "internalType": "uint256",
                    "name": "_startDate",
                    "type": "uint256"
                },
                {
                    "internalType": "uint256",
                    "name": "_endDate",
                    "type": "uint256"
                }
            ],
            "name": "getWorkTimeFromEmployeeBetweenTwoDates",
            "outputs": [
                {
                    "internalType": "uint256[]",
                    "name": "_date",
                    "type": "uint256[]"
                },
                {
                    "internalType": "uint256[]",
                    "name": "_startWork",
                    "type": "uint256[]"
                },
                {
                    "internalType": "uint256[]",
                    "name": "_endWork",
                    "type": "uint256[]"
                },
                {
                    "internalType": "uint256[]",
                    "name": "_breakStartTime",
                    "type": "uint256[]"
                },
                {
                    "internalType": "uint256[]",
                    "name": "_breakEndTime",
                    "type": "uint256[]"
                }
            ],
            "stateMutability": "view",
            "type": "function"
        },
        {
            "inputs": [
                {
                    "internalType": "uint256",
                    "name": "_date",
                    "type": "uint256"
                }
            ],
            "name": "getWorkTimesForAllEmployeesAtDate",
            "outputs": [
                {
                    "internalType": "address[]",
                    "name": "_empAddress",
                    "type": "address[]"
                },
                {
                    "internalType": "uint256[]",
                    "name": "_startWork",
                    "type": "uint256[]"
                },
                {
                    "internalType": "uint256[]",
                    "name": "_endWork",
                    "type": "uint256[]"
                },
                {
                    "internalType": "uint256[]",
                    "name": "_breakStartTime",
                    "type": "uint256[]"
                },
                {
                    "internalType": "uint256[]",
                    "name": "_breakEndTime",
                    "type": "uint256[]"
                }
            ],
            "stateMutability": "view",
            "type": "function"
        },
        {
            "inputs": [
                {
                    "internalType": "uint256",
                    "name": "_startDate",
                    "type": "uint256"
                },
                {
                    "internalType": "uint256",
                    "name": "_endDate",
                    "type": "uint256"
                }
            ],
            "name": "getWorkTimesForAllEmployeesBetweenTwoDates",
            "outputs": [
                {
                    "internalType": "uint256[]",
                    "name": "_date",
                    "type": "uint256[]"
                },
                {
                    "internalType": "address[][]",
                    "name": "_empAddress",
                    "type": "address[][]"
                },
                {
                    "internalType": "uint256[][]",
                    "name": "_startWork",
                    "type": "uint256[][]"
                },
                {
                    "internalType": "uint256[][]",
                    "name": "_endWork",
                    "type": "uint256[][]"
                },
                {
                    "internalType": "uint256[][]",
                    "name": "_breakStartTime",
                    "type": "uint256[][]"
                },
                {
                    "internalType": "uint256[][]",
                    "name": "_breakEndTime",
                    "type": "uint256[][]"
                }
            ],
            "stateMutability": "view",
            "type": "function"
        },
        {
            "inputs": [
                {
                    "internalType": "address",
                    "name": "_employee",
                    "type": "address"
                },
                {
                    "internalType": "uint256",
                    "name": "_date",
                    "type": "uint256"
                }
            ],
            "name": "getWorkTimesFromEmployeeAtDate",
            "outputs": [
                {
                    "internalType": "uint256",
                    "name": "_startWork",
                    "type": "uint256"
                },
                {
                    "internalType": "uint256",
                    "name": "_endWork",
                    "type": "uint256"
                },
                {
                    "internalType": "uint256",
                    "name": "_breakStartTime",
                    "type": "uint256"
                },
                {
                    "internalType": "uint256",
                    "name": "_breakEndTime",
                    "type": "uint256"
                }
            ],
            "stateMutability": "view",
            "type": "function"
        }
    ],
    "bytecode": "60806040523480156200001157600080fd5b5060405162001dd838038062001dd88339810160408190526200003491620000a5565b600080546001600160a01b039586166001600160a01b031991821617909155600180549486169482169490941790935560028054928516928416929092179091556003805491909316911617905562000102565b80516001600160a01b0381168114620000a057600080fd5b919050565b60008060008060808587031215620000bc57600080fd5b620000c78562000088565b9350620000d76020860162000088565b9250620000e76040860162000088565b9150620000f76060860162000088565b905092959194509250565b611cc680620001126000396000f3fe608060405234801561001057600080fd5b506004361061004c5760003560e01c8063011e92cd146100515780634188e3591461007e578063448e915f146100b1578063dd73d8ed146100d5575b600080fd5b61006461005f366004611561565b6100fa565b6040516100759594939291906115d1565b60405180910390f35b61009161008c36600461163e565b610768565b604080519485526020850193909352918301526060820152608001610075565b6100c46100bf36600461166a565b6109f9565b6040516100759594939291906116bc565b6100e86100e33660046116cf565b610f0c565b6040516100759695949392919061176d565b60035460405163debcf75d60e01b815233600482015260609182918291829182916001600160a01b03169063debcf75d90602401602060405180830381865afa15801561014b573d6000803e3d6000fd5b505050506040513d601f19601f8201168201806040525081019061016f9190611831565b80156101e25750600354604051630c63a7fb60e11b81523360048201526001600160a01b03909116906318c74ff690602401602060405180830381865afa1580156101be573d6000803e3d6000fd5b505050506040513d601f19601f820116820180604052508101906101e29190611831565b806101f55750336001600160a01b038916145b6102425760405162461bcd60e51b815260206004820152601960248201527829b2b73232b91034b9903737ba1030baba3437b934bd32b21760391b60448201526064015b60405180910390fd5b60005460405163fb4cf42560e01b81526001600160a01b038a811660048301529091169063fb4cf42590602401602060405180830381865afa15801561028c573d6000803e3d6000fd5b505050506040513d601f19601f820116820180604052508101906102b09190611831565b15156001146102fc5760405162461bcd60e51b815260206004820152601860248201527722b6b83637bcb2b2903737ba103932b3b4b9ba32b932b21760411b6044820152606401610239565b85871061031b5760405162461bcd60e51b81526004016102399061185a565b600160009054906101000a90046001600160a01b03166001600160a01b03166378147c056040518163ffffffff1660e01b8152600401602060405180830381865afa15801561036e573d6000803e3d6000fd5b505050506040513d601f19601f8201168201806040525081019061039291906118a0565b8710156103b15760405162461bcd60e51b8152600401610239906118b9565b600254604051632b57298b60e01b81524260048201526001600160a01b0390911690632b57298b90602401602060405180830381865afa1580156103f9573d6000803e3d6000fd5b505050506040513d601f19601f8201168201806040525081019061041d91906118a0565b86111561043c5760405162461bcd60e51b815260040161023990611916565b6104468787611977565b610451906001611990565b6001600160401b03811115610468576104686119a3565b604051908082528060200260200182016040528015610491578160200160208202803683370190505b50945061049e8787611977565b6104a9906001611990565b6001600160401b038111156104c0576104c06119a3565b6040519080825280602002602001820160405280156104e9578160200160208202803683370190505b5093506104f68787611977565b610501906001611990565b6001600160401b03811115610518576105186119a3565b604051908082528060200260200182016040528015610541578160200160208202803683370190505b50925061054e8787611977565b610559906001611990565b6001600160401b03811115610570576105706119a3565b604051908082528060200260200182016040528015610599578160200160208202803683370190505b5091506105a68787611977565b6105b1906001611990565b6001600160401b038111156105c8576105c86119a3565b6040519080825280602002602001820160405280156105f1578160200160208202803683370190505b509050865b86811161075c576001546040516306fd20b560e11b81526001600160a01b038b81166004830152602482018490526000921690630dfa416a90604401608060405180830381865afa15801561064f573d6000803e3d6000fd5b505050506040513d601f19601f820116820180604052508101906106739190611a12565b8051909150866106838b85611977565b8151811061069357610693611a77565b6020026020010181815250508060200151858a846106b19190611977565b815181106106c1576106c1611a77565b60209081029190910101526040810151846106dc8b85611977565b815181106106ec576106ec611a77565b60209081029190910101526060810151836107078b85611977565b8151811061071757610717611a77565b6020908102919091010152818761072e8b83611977565b8151811061073e5761073e611a77565b6020908102919091010152508061075481611a8d565b9150506105f6565b50939792965093509350565b60035460405163debcf75d60e01b81523360048201526000918291829182916001600160a01b039091169063debcf75d90602401602060405180830381865afa1580156107b9573d6000803e3d6000fd5b505050506040513d601f19601f820116820180604052508101906107dd9190611831565b80156108505750600354604051630c63a7fb60e11b81523360048201526001600160a01b03909116906318c74ff690602401602060405180830381865afa15801561082c573d6000803e3d6000fd5b505050506040513d601f19601f820116820180604052508101906108509190611831565b806108635750336001600160a01b038716145b6108ab5760405162461bcd60e51b815260206004820152601960248201527829b2b73232b91034b9903737ba1030baba3437b934bd32b21760391b6044820152606401610239565b60005460405163fb4cf42560e01b81526001600160a01b0388811660048301529091169063fb4cf42590602401602060405180830381865afa1580156108f5573d6000803e3d6000fd5b505050506040513d601f19601f820116820180604052508101906109199190611831565b6109605760405162461bcd60e51b815260206004820152601860248201527722b6b83637bcb2b2903737ba103932b3b4b9ba32b932b21760411b6044820152606401610239565b6001546040516306fd20b560e11b81526001600160a01b038881166004830152602482018890526000921690630dfa416a90604401608060405180830381865afa1580156109b2573d6000803e3d6000fd5b505050506040513d601f19601f820116820180604052508101906109d69190611a12565b805160208201516040830151606090930151919a90995091975095509350505050565b60035460405163debcf75d60e01b815233600482015260609182918291829182916001600160a01b03169063debcf75d90602401602060405180830381865afa158015610a4a573d6000803e3d6000fd5b505050506040513d601f19601f82011682018060405250810190610a6e9190611831565b610aba5760405162461bcd60e51b815260206004820152601c60248201527f53656e646572206973206e6f742061646d696e6973747261746f722e000000006044820152606401610239565b600354604051630c63a7fb60e11b81523360048201526001600160a01b03909116906318c74ff690602401602060405180830381865afa158015610b02573d6000803e3d6000fd5b505050506040513d601f19601f82011682018060405250810190610b269190611831565b610b725760405162461bcd60e51b815260206004820152601c60248201527f41646d696e6973747261746f72206973206e6f74206163746976652e000000006044820152606401610239565b600160009054906101000a90046001600160a01b03166001600160a01b03166378147c056040518163ffffffff1660e01b8152600401602060405180830381865afa158015610bc5573d6000803e3d6000fd5b505050506040513d601f19601f82011682018060405250810190610be991906118a0565b861015610c085760405162461bcd60e51b8152600401610239906118b9565b60008060009054906101000a90046001600160a01b03166001600160a01b031663e3366fed6040518163ffffffff1660e01b8152600401600060405180830381865afa158015610c5c573d6000803e3d6000fd5b505050506040513d6000823e601f3d908101601f19168201604052610c849190810190611b49565b905080516001600160401b03811115610c9f57610c9f6119a3565b604051908082528060200260200182016040528015610cc8578160200160208202803683370190505b50955080516001600160401b03811115610ce457610ce46119a3565b604051908082528060200260200182016040528015610d0d578160200160208202803683370190505b50945080516001600160401b03811115610d2957610d296119a3565b604051908082528060200260200182016040528015610d52578160200160208202803683370190505b50935080516001600160401b03811115610d6e57610d6e6119a3565b604051908082528060200260200182016040528015610d97578160200160208202803683370190505b50925080516001600160401b03811115610db357610db36119a3565b604051908082528060200260200182016040528015610ddc578160200160208202803683370190505b5091508660005b8251811015610f0057828181518110610dfe57610dfe611a77565b602002602001015160200151888281518110610e1c57610e1c611a77565b60200260200101906001600160a01b031690816001600160a01b031681525050600080600080610e658c8681518110610e5757610e57611a77565b602002602001015187610768565b9350935093509350838b8681518110610e8057610e80611a77565b602002602001018181525050828a8681518110610e9f57610e9f611a77565b60200260200101818152505081898681518110610ebe57610ebe611a77565b60200260200101818152505080888681518110610edd57610edd611a77565b602002602001018181525050505050508080610ef890611a8d565b915050610de3565b50505091939590929450565b60035460405163debcf75d60e01b8152336004820152606091829182918291829182916001600160a01b039091169063debcf75d90602401602060405180830381865afa158015610f61573d6000803e3d6000fd5b505050506040513d601f19601f82011682018060405250810190610f859190611831565b610fd15760405162461bcd60e51b815260206004820152601c60248201527f53656e646572206973206e6f742061646d696e6973747261746f722e000000006044820152606401610239565b600354604051630c63a7fb60e11b81523360048201526001600160a01b03909116906318c74ff690602401602060405180830381865afa158015611019573d6000803e3d6000fd5b505050506040513d601f19601f8201168201806040525081019061103d9190611831565b6110895760405162461bcd60e51b815260206004820152601c60248201527f41646d696e6973747261746f72206973206e6f74206163746976652e000000006044820152606401610239565b8688106110a85760405162461bcd60e51b81526004016102399061185a565b600160009054906101000a90046001600160a01b03166001600160a01b03166378147c056040518163ffffffff1660e01b8152600401602060405180830381865afa1580156110fb573d6000803e3d6000fd5b505050506040513d601f19601f8201168201806040525081019061111f91906118a0565b88101561113e5760405162461bcd60e51b8152600401610239906118b9565b600254604051632b57298b60e01b81524260048201526001600160a01b0390911690632b57298b90602401602060405180830381865afa158015611186573d6000803e3d6000fd5b505050506040513d601f19601f820116820180604052508101906111aa91906118a0565b8711156111c95760405162461bcd60e51b815260040161023990611916565b6111d38888611977565b6111de906001611990565b6001600160401b038111156111f5576111f56119a3565b60405190808252806020026020018201604052801561121e578160200160208202803683370190505b50955061122b8888611977565b611236906001611990565b6001600160401b0381111561124d5761124d6119a3565b60405190808252806020026020018201604052801561128057816020015b606081526020019060019003908161126b5790505b50945061128d8888611977565b611298906001611990565b6001600160401b038111156112af576112af6119a3565b6040519080825280602002602001820160405280156112e257816020015b60608152602001906001900390816112cd5790505b5093506112ef8888611977565b6112fa906001611990565b6001600160401b03811115611311576113116119a3565b60405190808252806020026020018201604052801561134457816020015b606081526020019060019003908161132f5790505b5092506113518888611977565b61135c906001611990565b6001600160401b03811115611373576113736119a3565b6040519080825280602002602001820160405280156113a657816020015b60608152602001906001900390816113915790505b5091506113b38888611977565b6113be906001611990565b6001600160401b038111156113d5576113d56119a3565b60405190808252806020026020018201604052801561140857816020015b60608152602001906001900390816113f35790505b509050875b87811161153e576000806000806000611425866109f9565b94509450945094509450848b8f8861143d9190611977565b8151811061144d5761144d611a77565b6020026020010181905250838a8f886114669190611977565b8151811061147657611476611a77565b602002602001018190525082898f8861148f9190611977565b8151811061149f5761149f611a77565b602002602001018190525081888f886114b89190611977565b815181106114c8576114c8611a77565b602002602001018190525080878f886114e19190611977565b815181106114f1576114f1611a77565b6020026020010181905250858c8f8861150a9190611977565b8151811061151a5761151a611a77565b6020026020010181815250505050505050808061153690611a8d565b91505061140d565b509295509295509295565b6001600160a01b038116811461155e57600080fd5b50565b60008060006060848603121561157657600080fd5b833561158181611549565b95602085013595506040909401359392505050565b600081518084526020808501945080840160005b838110156115c6578151875295820195908201906001016115aa565b509495945050505050565b60a0815260006115e460a0830188611596565b82810360208401526115f68188611596565b9050828103604084015261160a8187611596565b9050828103606084015261161e8186611596565b905082810360808401526116328185611596565b98975050505050505050565b6000806040838503121561165157600080fd5b823561165c81611549565b946020939093013593505050565b60006020828403121561167c57600080fd5b5035919050565b600081518084526020808501945080840160005b838110156115c65781516001600160a01b031687529582019590820190600101611697565b60a0815260006115e460a0830188611683565b600080604083850312156116e257600080fd5b50508035926020909101359150565b600081518084526020808501808196508360051b810191508286016000805b8681101561175f578385038a52825180518087529087019087870190845b8181101561174a5783518352928901929189019160010161172e565b50509a87019a95505091850191600101611710565b509298975050505050505050565b60c08152600061178060c0830189611596565b6020838203818501528189518084528284019150828160051b850101838c0160005b838110156117d057601f198784030185526117be838351611683565b948601949250908501906001016117a2565b505086810360408801526117e4818c6116f1565b94505050505082810360608401526117fc81876116f1565b9050828103608084015261181081866116f1565b905082810360a084015261182481856116f1565b9998505050505050505050565b60006020828403121561184357600080fd5b8151801515811461185357600080fd5b9392505050565b60208082526026908201527f53746172742064617465206d757374206265206c657373207468616e20656e64604082015265103230ba329760d11b606082015260800190565b6000602082840312156118b257600080fd5b5051919050565b60208082526037908201527f53746172742064617465206d75737420626520657175616c73206f722067726160408201527f74686572207468616e206372656174696f6e446174652e000000000000000000606082015260800190565b6020808252602b908201527f456e642064617465206d75737420626520657175616c73206f72206c6573732060408201526a3a3430b7103a37b230bc9760a91b606082015260800190565b634e487b7160e01b600052601160045260246000fd5b8181038181111561198a5761198a611961565b92915050565b8082018082111561198a5761198a611961565b634e487b7160e01b600052604160045260246000fd5b60405161010081016001600160401b03811182821017156119dc576119dc6119a3565b60405290565b604051601f8201601f191681016001600160401b0381118282101715611a0a57611a0a6119a3565b604052919050565b600060808284031215611a2457600080fd5b604051608081018181106001600160401b0382111715611a4657611a466119a3565b8060405250825181526020830151602082015260408301516040820152606083015160608201528091505092915050565b634e487b7160e01b600052603260045260246000fd5b600060018201611a9f57611a9f611961565b5060010190565b8051611ab181611549565b919050565b600082601f830112611ac757600080fd5b81516001600160401b03811115611ae057611ae06119a3565b6020611af4601f8301601f191682016119e2565b8281528582848701011115611b0857600080fd5b60005b83811015611b26578581018301518282018401528201611b0b565b506000928101909101919091529392505050565b805160028110611ab157600080fd5b60006020808385031215611b5c57600080fd5b82516001600160401b0380821115611b7357600080fd5b818501915085601f830112611b8757600080fd5b815181811115611b9957611b996119a3565b8060051b611ba88582016119e2565b9182528381018501918581019089841115611bc257600080fd5b86860192505b8383101561182457825185811115611bdf57600080fd5b8601610100818c03601f1901811315611bf757600080fd5b611bff6119b9565b898301518152611c1160408401611aa6565b8a8201526060830151604082015260808084015189811115611c335760008081fd5b611c418f8d83880101611ab6565b60608401525060a0808501518284015260c0915081850151818401525060e0611c6b818601611b3a565b82840152611c7a848601611aa6565b9083015250845250509186019190860190611bc856fea26469706673582212201ef1066f748b704d1b3dfa6ab682bcbad267484ec78613d01d044f4a63bee22564736f6c63430008130033",
    "sourcePath": "/home/gilmar/Development/scafolding/contracts/PontoBlockReports.sol",
    "compiler": {
        "name": "solc",
        "version": "0.8.19+commit.7dd6d404"
    },
    "functionHashes": {
        "getWorkTimeFromEmployeeBetweenTwoDates(address,uint256,uint256)": "011e92cd",
        "getWorkTimesForAllEmployeesAtDate(uint256)": "448e915f",
        "getWorkTimesForAllEmployeesBetweenTwoDates(uint256,uint256)": "dd73d8ed",
        "getWorkTimesFromEmployeeAtDate(address,uint256)": "4188e359"
    },
    "gasEstimates": {
        "creation": {
            "codeDepositCost": "1473200",
            "executionCost": "infinite",
            "totalCost": "infinite"
        },
        "external": {
            "getWorkTimeFromEmployeeBetweenTwoDates(address,uint256,uint256)": "infinite",
            "getWorkTimesForAllEmployeesAtDate(uint256)": "infinite",
            "getWorkTimesForAllEmployeesBetweenTwoDates(uint256,uint256)": "infinite",
            "getWorkTimesFromEmployeeAtDate(address,uint256)": "infinite"
        }
    }
}