{
    "contractName": "PontoBlock",
    "abi": [
        {
            "inputs": [
                {
                    "internalType": "address",
                    "name": "_emp",
                    "type": "address"
                },
                {
                    "internalType": "address",
                    "name": "_util",
                    "type": "address"
                },
                {
                    "internalType": "address",
                    "name": "_adm",
                    "type": "address"
                },
                {
                    "internalType": "int256",
                    "name": "_timeZone",
                    "type": "int256"
                }
            ],
            "stateMutability": "nonpayable",
            "type": "constructor"
        },
        {
            "anonymous": false,
            "inputs": [
                {
                    "indexed": true,
                    "internalType": "address",
                    "name": "address_",
                    "type": "address"
                },
                {
                    "indexed": true,
                    "internalType": "uint256",
                    "name": "breakEndtWork_",
                    "type": "uint256"
                },
                {
                    "indexed": false,
                    "internalType": "uint256",
                    "name": "timestamp_",
                    "type": "uint256"
                }
            ],
            "name": "BreakEndWorkRegistered",
            "type": "event"
        },
        {
            "anonymous": false,
            "inputs": [
                {
                    "indexed": true,
                    "internalType": "address",
                    "name": "address_",
                    "type": "address"
                },
                {
                    "indexed": true,
                    "internalType": "uint256",
                    "name": "breakStartWork_",
                    "type": "uint256"
                },
                {
                    "indexed": false,
                    "internalType": "uint256",
                    "name": "timestamp_",
                    "type": "uint256"
                }
            ],
            "name": "BreakStartWorkRegistered",
            "type": "event"
        },
        {
            "anonymous": false,
            "inputs": [
                {
                    "indexed": true,
                    "internalType": "address",
                    "name": "address_",
                    "type": "address"
                },
                {
                    "indexed": true,
                    "internalType": "uint256",
                    "name": "endWork_",
                    "type": "uint256"
                },
                {
                    "indexed": false,
                    "internalType": "uint256",
                    "name": "timestamp_",
                    "type": "uint256"
                }
            ],
            "name": "EndWorkRegistered",
            "type": "event"
        },
        {
            "anonymous": false,
            "inputs": [
                {
                    "indexed": true,
                    "internalType": "address",
                    "name": "address_",
                    "type": "address"
                },
                {
                    "indexed": true,
                    "internalType": "uint256",
                    "name": "startWork_",
                    "type": "uint256"
                },
                {
                    "indexed": false,
                    "internalType": "uint256",
                    "name": "timestamp_",
                    "type": "uint256"
                }
            ],
            "name": "StartWorkRegistered",
            "type": "event"
        },
        {
            "inputs": [],
            "name": "breakEndTime",
            "outputs": [],
            "stateMutability": "nonpayable",
            "type": "function"
        },
        {
            "inputs": [],
            "name": "breakStartTime",
            "outputs": [],
            "stateMutability": "nonpayable",
            "type": "function"
        },
        {
            "inputs": [
                {
                    "internalType": "address",
                    "name": "_newOwner",
                    "type": "address"
                }
            ],
            "name": "changeOwner",
            "outputs": [],
            "stateMutability": "nonpayable",
            "type": "function"
        },
        {
            "inputs": [],
            "name": "endWork",
            "outputs": [],
            "stateMutability": "nonpayable",
            "type": "function"
        },
        {
            "inputs": [],
            "name": "getCreationDateContract",
            "outputs": [
                {
                    "internalType": "uint256",
                    "name": "",
                    "type": "uint256"
                }
            ],
            "stateMutability": "view",
            "type": "function"
        },
        {
            "inputs": [
                {
                    "internalType": "address",
                    "name": "_address",
                    "type": "address"
                },
                {
                    "internalType": "uint256",
                    "name": "_date",
                    "type": "uint256"
                }
            ],
            "name": "getEmployeeRecords",
            "outputs": [
                {
                    "components": [
                        {
                            "internalType": "uint256",
                            "name": "startWork",
                            "type": "uint256"
                        },
                        {
                            "internalType": "uint256",
                            "name": "endWork",
                            "type": "uint256"
                        },
                        {
                            "internalType": "uint256",
                            "name": "breakStartTime",
                            "type": "uint256"
                        },
                        {
                            "internalType": "uint256",
                            "name": "breakEndTime",
                            "type": "uint256"
                        }
                    ],
                    "internalType": "struct PontoBlock.EmployeeRecord",
                    "name": "",
                    "type": "tuple"
                }
            ],
            "stateMutability": "view",
            "type": "function"
        },
        {
            "inputs": [],
            "name": "getMoment",
            "outputs": [
                {
                    "internalType": "uint256",
                    "name": "",
                    "type": "uint256"
                }
            ],
            "stateMutability": "view",
            "type": "function"
        },
        {
            "inputs": [],
            "name": "getOwner",
            "outputs": [
                {
                    "internalType": "address",
                    "name": "",
                    "type": "address"
                }
            ],
            "stateMutability": "view",
            "type": "function"
        },
        {
            "inputs": [],
            "name": "getTimeZone",
            "outputs": [
                {
                    "internalType": "int256",
                    "name": "",
                    "type": "int256"
                }
            ],
            "stateMutability": "view",
            "type": "function"
        },
        {
            "inputs": [],
            "name": "startWork",
            "outputs": [],
            "stateMutability": "nonpayable",
            "type": "function"
        }
    ],
    "bytecode": "6080604052610e106004553480156200001757600080fd5b50604051620021f0380380620021f08339810160408190526200003a916200017e565b600080546001600160a01b038087166001600160a01b03199283161790925560018054868416908316811790915560028054938616938316939093179092556005805490911633179055632b57298b6200009362000106565b6040518263ffffffff1660e01b8152600401620000b291815260200190565b602060405180830381865afa158015620000d0573d6000803e3d6000fd5b505050506040513d601f19601f82011682018060405250810190620000f69190620001d0565b6006556003555062000262915050565b6000806004546003546200011b919062000200565b90506000808212156200014c57620001368260001962000200565b915062000144824262000236565b90506200015b565b6200015882426200024c565b90505b92915050565b80516001600160a01b03811681146200017957600080fd5b919050565b600080600080608085870312156200019557600080fd5b620001a08562000161565b9350620001b06020860162000161565b9250620001c06040860162000161565b6060959095015193969295505050565b600060208284031215620001e357600080fd5b5051919050565b634e487b7160e01b600052601160045260246000fd5b80820260008212600160ff1b841416156200021f576200021f620001ea565b81810583148215176200015b576200015b620001ea565b818103818111156200015b576200015b620001ea565b808201808211156200015b576200015b620001ea565b611f7e80620002726000396000f3fe608060405234801561001057600080fd5b506004361061009e5760003560e01c8063893d20e811610066578063893d20e81461011e578063a6f9dae11461013e578063c8d06eb114610151578063d34c00fa14610159578063ddaf8c181461016157600080fd5b806301034979146100a35780630dfa416a146100ad5780634c6e0dca146100fc5780634f82ff1d1461010e57806378147c0514610116575b600080fd5b6100ab610169565b005b6100c06100bb366004611b89565b6104e8565b6040516100f391908151815260208083015190820152604080830151908201526060918201519181019190915260800190565b60405180910390f35b6003545b6040519081526020016100f3565b6100ab610708565b610100610c34565b610126610d4c565b6040516001600160a01b0390911681526020016100f3565b6100ab61014c366004611bb5565b610e6d565b6100ab610ef8565b6101006116dc565b6100ab61172d565b60005460405163fb4cf42560e01b81523360048201819052916001600160a01b03169063fb4cf42590602401602060405180830381865afa1580156101b2573d6000803e3d6000fd5b505050506040513d601f19601f820116820180604052508101906101d69190611bd9565b6101fb5760405162461bcd60e51b81526004016101f290611bfb565b60405180910390fd5b600054604051630615477d60e01b81523360048201526001916001600160a01b031690630615477d90602401600060405180830381865afa158015610244573d6000803e3d6000fd5b505050506040513d6000823e601f3d908101601f1916820160405261026c9190810190611d5d565b60c00151600181111561028157610281611c32565b1461029e5760405162461bcd60e51b81526004016101f290611e26565b336000908152600760205260408082206001549151632b57298b60e01b81524260048201529092916001600160a01b031690632b57298b90602401602060405180830381865afa1580156102f6573d6000803e3d6000fd5b505050506040513d601f19601f8201168201806040525081019061031a9190611e55565b8152602081019190915260400160002054156103825760405162461bcd60e51b815260206004820152602160248201527f5374617274206f6620776f726b20616c726561647920726567697374657265646044820152601760f91b60648201526084016101f2565b336000908152600760205260408082206001549151632b57298b60e01b815242600482018190529391926001600160a01b031690632b57298b90602401602060405180830381865afa1580156103dc573d6000803e3d6000fd5b505050506040513d601f19601f820116820180604052508101906104009190611e55565b8152602080820192909252604090810160009081209390935533835260079091528082206001549151632b57298b60e01b81524260048201529092916001600160a01b031690632b57298b90602401602060405180830381865afa15801561046c573d6000803e3d6000fd5b505050506040513d601f19601f820116820180604052508101906104909190611e55565b815260200190815260200160002060000154336001600160a01b03167fe7802710c3577381f32765f52852617e3f8344e6d8e0fe36f557d64949f4a7c2426040516104dd91815260200190565b60405180910390a350565b6105136040518060800160405280600081526020016000815260200160008152602001600081525090565b60025460405163debcf75d60e01b81523360048201526001600160a01b039091169063debcf75d90602401602060405180830381865afa15801561055b573d6000803e3d6000fd5b505050506040513d601f19601f8201168201806040525081019061057f9190611bd9565b61059b5760405162461bcd60e51b81526004016101f290611e6e565b600254604051630c63a7fb60e11b81523360048201526001600160a01b03909116906318c74ff690602401602060405180830381865afa1580156105e3573d6000803e3d6000fd5b505050506040513d601f19601f820116820180604052508101906106079190611bd9565b6106235760405162461bcd60e51b81526004016101f290611ea5565b60005460405163fb4cf42560e01b81526001600160a01b0380861660048301528592169063fb4cf42590602401602060405180830381865afa15801561066d573d6000803e3d6000fd5b505050506040513d601f19601f820116820180604052508101906106919190611bd9565b6106ad5760405162461bcd60e51b81526004016101f290611bfb565b50506001600160a01b0391909116600090815260076020908152604080832093835292815290829020825160808101845281548152600182015492810192909252600281015492820192909252600390910154606082015290565b60005460405163fb4cf42560e01b81523360048201819052916001600160a01b03169063fb4cf42590602401602060405180830381865afa158015610751573d6000803e3d6000fd5b505050506040513d601f19601f820116820180604052508101906107759190611bd9565b6107915760405162461bcd60e51b81526004016101f290611bfb565b600054604051630615477d60e01b81523360048201526001916001600160a01b031690630615477d90602401600060405180830381865afa1580156107da573d6000803e3d6000fd5b505050506040513d6000823e601f3d908101601f191682016040526108029190810190611d5d565b60c00151600181111561081757610817611c32565b146108345760405162461bcd60e51b81526004016101f290611e26565b336000908152600760205260408082206001549151632b57298b60e01b81524260048201529092916001600160a01b031690632b57298b90602401602060405180830381865afa15801561088c573d6000803e3d6000fd5b505050506040513d601f19601f820116820180604052508101906108b09190611e55565b81526020019081526020016000206002015460001461091c5760405162461bcd60e51b815260206004820152602260248201527f5374617274206f6620627265616b20616c726561647920726567697374657265604482015261321760f11b60648201526084016101f2565b336000908152600760205260408082206001549151632b57298b60e01b81524260048201529092916001600160a01b031690632b57298b90602401602060405180830381865afa158015610974573d6000803e3d6000fd5b505050506040513d601f19601f820116820180604052508101906109989190611e55565b8152602001908152602001600020600001546000036109f95760405162461bcd60e51b815260206004820152601d60248201527f5374617274206f6620776f726b206e6f7420726567697374657265642e00000060448201526064016101f2565b336000908152600760205260408082206001549151632b57298b60e01b81524260048201529092916001600160a01b031690632b57298b90602401602060405180830381865afa158015610a51573d6000803e3d6000fd5b505050506040513d601f19601f82011682018060405250810190610a759190611e55565b815260200190815260200160002060010154600014610ad65760405162461bcd60e51b815260206004820152601f60248201527f456e64206f6620776f726b20616c726561647920726567697374657265642e0060448201526064016101f2565b336000908152600760205260408082206001549151632b57298b60e01b815242600482018190529391926001600160a01b031690632b57298b90602401602060405180830381865afa158015610b30573d6000803e3d6000fd5b505050506040513d601f19601f82011682018060405250810190610b549190611e55565b8152602080820192909252604090810160009081206002019390935533835260079091528082206001549151632b57298b60e01b81524260048201529092916001600160a01b031690632b57298b90602401602060405180830381865afa158015610bc3573d6000803e3d6000fd5b505050506040513d601f19601f82011682018060405250810190610be79190611e55565b815260200190815260200160002060020154336001600160a01b03167fd6f35d735a0b4d42615b6e52c06fd2d6d477ba2d9f8142ebc9603fac05d50e62426040516104dd91815260200190565b60025460405163debcf75d60e01b81523360048201526000916001600160a01b03169063debcf75d90602401602060405180830381865afa158015610c7d573d6000803e3d6000fd5b505050506040513d601f19601f82011682018060405250810190610ca19190611bd9565b610cbd5760405162461bcd60e51b81526004016101f290611e6e565b600254604051630c63a7fb60e11b81523360048201526001600160a01b03909116906318c74ff690602401602060405180830381865afa158015610d05573d6000803e3d6000fd5b505050506040513d601f19601f82011682018060405250810190610d299190611bd9565b610d455760405162461bcd60e51b81526004016101f290611ea5565b5060065490565b60025460405163debcf75d60e01b81523360048201526000916001600160a01b03169063debcf75d90602401602060405180830381865afa158015610d95573d6000803e3d6000fd5b505050506040513d601f19601f82011682018060405250810190610db99190611bd9565b610dd55760405162461bcd60e51b81526004016101f290611e6e565b600254604051630c63a7fb60e11b81523360048201526001600160a01b03909116906318c74ff690602401602060405180830381865afa158015610e1d573d6000803e3d6000fd5b505050506040513d601f19601f82011682018060405250810190610e419190611bd9565b610e5d5760405162461bcd60e51b81526004016101f290611ea5565b506005546001600160a01b031690565b6005546001600160a01b03163314610ed65760405162461bcd60e51b815260206004820152602660248201527f4f6e6c7920746865206f776e65722063616e2063616c6c20746869732066756e60448201526531ba34b7b71760d11b60648201526084016101f2565b600580546001600160a01b0319166001600160a01b0392909216919091179055565b60005460405163fb4cf42560e01b81523360048201819052916001600160a01b03169063fb4cf42590602401602060405180830381865afa158015610f41573d6000803e3d6000fd5b505050506040513d601f19601f82011682018060405250810190610f659190611bd9565b610f815760405162461bcd60e51b81526004016101f290611bfb565b600054604051630615477d60e01b81523360048201526001916001600160a01b031690630615477d90602401600060405180830381865afa158015610fca573d6000803e3d6000fd5b505050506040513d6000823e601f3d908101601f19168201604052610ff29190810190611d5d565b60c00151600181111561100757611007611c32565b146110245760405162461bcd60e51b81526004016101f290611e26565b336000908152600760205260408082206001549151632b57298b60e01b81524260048201529092916001600160a01b031690632b57298b90602401602060405180830381865afa15801561107c573d6000803e3d6000fd5b505050506040513d601f19601f820116820180604052508101906110a09190611e55565b8152602001908152602001600020600101546000146111015760405162461bcd60e51b815260206004820152601f60248201527f456e64206f6620776f726b20616c726561647920726567697374657265642e0060448201526064016101f2565b336000908152600760205260408082206001549151632b57298b60e01b81524260048201529092916001600160a01b031690632b57298b90602401602060405180830381865afa158015611159573d6000803e3d6000fd5b505050506040513d601f19601f8201168201806040525081019061117d9190611e55565b8152602001908152602001600020600001546000036111de5760405162461bcd60e51b815260206004820152601d60248201527f5374617274206f6620776f726b206e6f7420726567697374657265642e00000060448201526064016101f2565b336000908152600760205260408082206001549151632b57298b60e01b8152426004820152610e109391926001600160a01b031690632b57298b90602401602060405180830381865afa158015611239573d6000803e3d6000fd5b505050506040513d601f19601f8201168201806040525081019061125d9190611e55565b81526020019081526020016000206002015460001415801561130c5750336000908152600760205260408082206001549151632b57298b60e01b81524260048201529092916001600160a01b031690632b57298b90602401602060405180830381865afa1580156112d2573d6000803e3d6000fd5b505050506040513d601f19601f820116820180604052508101906112f69190611e55565b8152602001908152602001600020600301546000145b1561157257336000908152600760205260408082206001549151632b57298b60e01b8152426004820152849391926001600160a01b031690632b57298b90602401602060405180830381865afa15801561136a573d6000803e3d6000fd5b505050506040513d601f19601f8201168201806040525081019061138e9190611e55565b815260200190815260200160002060020154426113ab9190611ef2565b11156114df57336000908152600760205260408082206001549151632b57298b60e01b8152426004820152849391926001600160a01b031690632b57298b90602401602060405180830381865afa15801561140a573d6000803e3d6000fd5b505050506040513d601f19601f8201168201806040525081019061142e9190611e55565b81526020019081526020016000206002015461144a9190611f05565b336000908152600760205260408082206001549151632b57298b60e01b81524260048201529092916001600160a01b031690632b57298b90602401602060405180830381865afa1580156114a2573d6000803e3d6000fd5b505050506040513d601f19601f820116820180604052508101906114c69190611e55565b8152602081019190915260400160002060030155611572565b336000908152600760205260408082206001549151632b57298b60e01b815242600482018190529391926001600160a01b031690632b57298b90602401602060405180830381865afa158015611539573d6000803e3d6000fd5b505050506040513d601f19601f8201168201806040525081019061155d9190611e55565b81526020810191909152604001600020600301555b336000908152600760205260408082206001549151632b57298b60e01b815242600482018190529391926001600160a01b031690632b57298b90602401602060405180830381865afa1580156115cc573d6000803e3d6000fd5b505050506040513d601f19601f820116820180604052508101906115f09190611e55565b815260208082019290925260409081016000908120600190810194909455338152600790925280822092549051632b57298b60e01b81524260048201526001600160a01b0390911690632b57298b90602401602060405180830381865afa15801561165f573d6000803e3d6000fd5b505050506040513d601f19601f820116820180604052508101906116839190611e55565b815260200190815260200160002060010154336001600160a01b03167f61d18dc5df7888eae2700b9139a58d255964b0398d1d45c6a7ad30f73625c9e8426040516116d091815260200190565b60405180910390a35050565b6000806004546003546116ef9190611f18565b905060008082121561171a5761170782600019611f18565b91506117138242611ef2565b9050611727565b6117248242611f05565b90505b92915050565b60005460405163fb4cf42560e01b81523360048201819052916001600160a01b03169063fb4cf42590602401602060405180830381865afa158015611776573d6000803e3d6000fd5b505050506040513d601f19601f8201168201806040525081019061179a9190611bd9565b6117b65760405162461bcd60e51b81526004016101f290611bfb565b600054604051630615477d60e01b81523360048201526001916001600160a01b031690630615477d90602401600060405180830381865afa1580156117ff573d6000803e3d6000fd5b505050506040513d6000823e601f3d908101601f191682016040526118279190810190611d5d565b60c00151600181111561183c5761183c611c32565b146118595760405162461bcd60e51b81526004016101f290611e26565b336000908152600760205260408082206001549151632b57298b60e01b81524260048201529092916001600160a01b031690632b57298b90602401602060405180830381865afa1580156118b1573d6000803e3d6000fd5b505050506040513d601f19601f820116820180604052508101906118d59190611e55565b8152602001908152602001600020600301546000146119365760405162461bcd60e51b815260206004820181905260248201527f456e64206f6620627265616b20616c726561647920726567697374657265642e60448201526064016101f2565b336000908152600760205260408082206001549151632b57298b60e01b81524260048201529092916001600160a01b031690632b57298b90602401602060405180830381865afa15801561198e573d6000803e3d6000fd5b505050506040513d601f19601f820116820180604052508101906119b29190611e55565b815260200190815260200160002060020154600003611a135760405162461bcd60e51b815260206004820152601e60248201527f5374617274206f6620627265616b206e6f7420726567697374657265642e000060448201526064016101f2565b336000908152600760205260408082206001549151632b57298b60e01b815242600482018190529391926001600160a01b031690632b57298b90602401602060405180830381865afa158015611a6d573d6000803e3d6000fd5b505050506040513d601f19601f82011682018060405250810190611a919190611e55565b8152602080820192909252604090810160009081206003019390935533835260079091528082206001549151632b57298b60e01b81524260048201529092916001600160a01b031690632b57298b90602401602060405180830381865afa158015611b00573d6000803e3d6000fd5b505050506040513d601f19601f82011682018060405250810190611b249190611e55565b815260200190815260200160002060030154336001600160a01b03167f8779200497dcdbc227d0b5b9127aed88b8e64e7315106d431f2e92838ce58363426040516104dd91815260200190565b6001600160a01b0381168114611b8657600080fd5b50565b60008060408385031215611b9c57600080fd5b8235611ba781611b71565b946020939093013593505050565b600060208284031215611bc757600080fd5b8135611bd281611b71565b9392505050565b600060208284031215611beb57600080fd5b81518015158114611bd257600080fd5b60208082526018908201527f456d706c6f796565206e6f7420726567697374657265642e0000000000000000604082015260600190565b634e487b7160e01b600052602160045260246000fd5b634e487b7160e01b600052604160045260246000fd5b604051610100810167ffffffffffffffff81118282101715611c8257611c82611c48565b60405290565b604051601f8201601f1916810167ffffffffffffffff81118282101715611cb157611cb1611c48565b604052919050565b8051611cc481611b71565b919050565b600082601f830112611cda57600080fd5b815167ffffffffffffffff811115611cf457611cf4611c48565b6020611d08601f8301601f19168201611c88565b8281528582848701011115611d1c57600080fd5b60005b83811015611d3a578581018301518282018401528201611d1f565b506000928101909101919091529392505050565b805160028110611cc457600080fd5b600060208284031215611d6f57600080fd5b815167ffffffffffffffff80821115611d8757600080fd5b908301906101008286031215611d9c57600080fd5b611da4611c5e565b82518152611db460208401611cb9565b602082015260408301516040820152606083015182811115611dd557600080fd5b611de187828601611cc9565b6060830152506080830151608082015260a083015160a0820152611e0760c08401611d4e565b60c0820152611e1860e08401611cb9565b60e082015295945050505050565b60208082526015908201527422b6b83637bcb2b29034b99034b730b1ba34bb329760591b604082015260600190565b600060208284031215611e6757600080fd5b5051919050565b6020808252601d908201527f53656e646572206d7573742062652061646d696e6973747261746f722e000000604082015260600190565b6020808252601c908201527f41646d696e6973747261746f72206973206e6f74206163746976652e00000000604082015260600190565b634e487b7160e01b600052601160045260246000fd5b8181038181111561172757611727611edc565b8082018082111561172757611727611edc565b80820260008212600160ff1b84141615611f3457611f34611edc565b818105831482151761172757611727611edc56fea26469706673582212204aaab3836b831c12cbb4b3ad6dfbaf6d1934f65309df900a7896d1e5c3fc302564736f6c63430008130033",
    "sourcePath": "/home/gilmar/Development/scafolding/contracts/PontoBlock.sol",
    "compiler": {
        "name": "solc",
        "version": "0.8.19+commit.7dd6d404"
    },
    "functionHashes": {
        "breakEndTime()": "ddaf8c18",
        "breakStartTime()": "4f82ff1d",
        "changeOwner(address)": "a6f9dae1",
        "endWork()": "c8d06eb1",
        "getCreationDateContract()": "78147c05",
        "getEmployeeRecords(address,uint256)": "0dfa416a",
        "getMoment()": "d34c00fa",
        "getOwner()": "893d20e8",
        "getTimeZone()": "4c6e0dca",
        "startWork()": "01034979"
    },
    "gasEstimates": {
        "creation": {
            "codeDepositCost": "1612400",
            "executionCost": "infinite",
            "totalCost": "infinite"
        },
        "external": {
            "breakEndTime()": "infinite",
            "breakStartTime()": "infinite",
            "changeOwner(address)": "26727",
            "endWork()": "infinite",
            "getCreationDateContract()": "infinite",
            "getEmployeeRecords(address,uint256)": "infinite",
            "getMoment()": "infinite",
            "getOwner()": "infinite",
            "getTimeZone()": "2326",
            "startWork()": "infinite"
        }
    }
}