{
    "contractName": "UtilContract",
    "abi": [
        {
            "inputs": [
                {
                    "internalType": "uint256",
                    "name": "timestamp",
                    "type": "uint256"
                }
            ],
            "name": "getDate",
            "outputs": [
                {
                    "internalType": "uint256",
                    "name": "yearMonthDay",
                    "type": "uint256"
                }
            ],
            "stateMutability": "pure",
            "type": "function"
        },
        {
            "inputs": [
                {
                    "internalType": "uint256",
                    "name": "_time",
                    "type": "uint256"
                }
            ],
            "name": "validateTime",
            "outputs": [
                {
                    "internalType": "bool",
                    "name": "",
                    "type": "bool"
                }
            ],
            "stateMutability": "pure",
            "type": "function"
        }
    ],
    "bytecode": "608060405234801561001057600080fd5b50610462806100206000396000f3fe608060405234801561001057600080fd5b50600436106100365760003560e01c80632b57298b1461003b578063dc888e9f14610061575b600080fd5b61004e61004936600461034d565b610084565b6040519081526020015b60405180910390f35b61007461006f36600461034d565b610304565b6040519015158152602001610058565b60008082116100e55760405162461bcd60e51b815260206004820152602360248201527f54696d657374616d702073686f756c64206265206d6f7265207468616e207a6560448201526239379760e91b606482015260840160405180910390fd5b6000808062015180816100f88288610392565b9050600061010861016d83610392565b9050610116816107b26103a6565b955060006101268261016d6103bf565b61013090846103d6565b90506107b25b87811015610197576101496004826103e9565b158015610172575061015c6064826103e9565b1515806101725750610170610190826103e9565b155b15610185576101826001836103d6565b91505b8061018f816103fd565b915050610136565b506040805161018081018252601f808252601c6020830152918101829052601e606082018190526080820183905260a0820181905260c0820183905260e0820183905261010082018190526101208201839052610140820152610160810191909152603b82106102425761020c6004896103e9565b158015610235575061021f6064896103e9565b1515806102355750610233610190896103e9565b155b1561024257601d60208201525b60005b600c8110156102c6578181600c811061026057610260610416565b602002015160ff1683101561028e5761027a8160016103a6565b97506102878360016103a6565b96506102c6565b8181600c81106102a0576102a0610416565b60200201516102b29060ff16846103d6565b9250806102be816103fd565b915050610245565b506102d3886127106103bf565b98506102e08760646103bf565b6102ea908a6103a6565b98506102f6868a6103a6565b9a9950505050505050505050565b60008080610313606485610392565b91506103206064856103e9565b9050601782111580156103345750603b8111155b15610343575060019392505050565b5060009392505050565b60006020828403121561035f57600080fd5b5035919050565b634e487b7160e01b600052601260045260246000fd5b634e487b7160e01b600052601160045260246000fd5b6000826103a1576103a1610366565b500490565b808201808211156103b9576103b961037c565b92915050565b80820281158282048414176103b9576103b961037c565b818103818111156103b9576103b961037c565b6000826103f8576103f8610366565b500690565b60006001820161040f5761040f61037c565b5060010190565b634e487b7160e01b600052603260045260246000fdfea26469706673582212203011414814f84226d37771b403ed81fbac9081bc39e453711ba49a1ce7958e5a64736f6c63430008130033",
    "sourcePath": "/home/gilmar/Development/scafolding/contracts/UtilContract.sol",
    "compiler": {
        "name": "solc",
        "version": "0.8.19+commit.7dd6d404"
    },
    "functionHashes": {
        "getDate(uint256)": "2b57298b",
        "validateTime(uint256)": "dc888e9f"
    },
    "gasEstimates": {
        "creation": {
            "codeDepositCost": "224400",
            "executionCost": "269",
            "totalCost": "224669"
        },
        "external": {
            "getDate(uint256)": "infinite",
            "validateTime(uint256)": "503"
        }
    }
}